{
	"FundMe.sol": {
		"FundMe": {
			"abi": [
				{
					"inputs": [],
					"stateMutability": "nonpayable",
					"type": "constructor"
				},
				{
					"inputs": [
						{
							"internalType": "address",
							"name": "funder",
							"type": "address"
						}
					],
					"name": "addressToAmount",
					"outputs": [
						{
							"internalType": "uint256",
							"name": "amountFunded",
							"type": "uint256"
						}
					],
					"stateMutability": "view",
					"type": "function"
				},
				{
					"inputs": [],
					"name": "fund",
					"outputs": [],
					"stateMutability": "payable",
					"type": "function"
				},
				{
					"inputs": [
						{
							"internalType": "uint256",
							"name": "",
							"type": "uint256"
						}
					],
					"name": "listOfFunds",
					"outputs": [
						{
							"internalType": "address",
							"name": "",
							"type": "address"
						}
					],
					"stateMutability": "view",
					"type": "function"
				},
				{
					"inputs": [],
					"name": "minimalAmmoundUsd",
					"outputs": [
						{
							"internalType": "uint256",
							"name": "",
							"type": "uint256"
						}
					],
					"stateMutability": "view",
					"type": "function"
				},
				{
					"inputs": [],
					"name": "owner",
					"outputs": [
						{
							"internalType": "address",
							"name": "",
							"type": "address"
						}
					],
					"stateMutability": "view",
					"type": "function"
				},
				{
					"inputs": [],
					"name": "withdraw",
					"outputs": [],
					"stateMutability": "nonpayable",
					"type": "function"
				}
			],
			"devdoc": {
				"kind": "dev",
				"methods": {},
				"version": 1
			},
			"evm": {
				"assembly": "    /* \"FundMe.sol\":112:1565  contract FundMe {... */\n  mstore(0x40, 0x80)\n    /* \"FundMe.sol\":291:295  5e18 */\n  0x4563918244f40000\n    /* \"FundMe.sol\":256:295  uint256 public minimalAmmoundUsd = 5e18 */\n  0x01\n  sstore\n    /* \"FundMe.sol\":161:211  constructor () {... */\n  callvalue\n  dup1\n  iszero\n  tag_1\n  jumpi\n  0x00\n  dup1\n  revert\ntag_1:\n  pop\n    /* \"FundMe.sol\":194:204  msg.sender */\n  caller\n    /* \"FundMe.sol\":186:191  owner */\n  0x00\n  dup1\n    /* \"FundMe.sol\":186:204  owner = msg.sender */\n  0x0100\n  exp\n  dup2\n  sload\n  dup2\n  0xffffffffffffffffffffffffffffffffffffffff\n  mul\n  not\n  and\n  swap1\n  dup4\n  0xffffffffffffffffffffffffffffffffffffffff\n  and\n  mul\n  or\n  swap1\n  sstore\n  pop\n    /* \"FundMe.sol\":112:1565  contract FundMe {... */\n  dataSize(sub_0)\n  dup1\n  dataOffset(sub_0)\n  0x00\n  codecopy\n  0x00\n  return\nstop\n\nsub_0: assembly {\n        /* \"FundMe.sol\":112:1565  contract FundMe {... */\n      mstore(0x40, 0x80)\n      jumpi(tag_1, lt(calldatasize, 0x04))\n      shr(0xe0, calldataload(0x00))\n      dup1\n      0x388a4891\n      eq\n      tag_2\n      jumpi\n      dup1\n      0x3c7e7d28\n      eq\n      tag_3\n      jumpi\n      dup1\n      0x3ccfd60b\n      eq\n      tag_4\n      jumpi\n      dup1\n      0x8da5cb5b\n      eq\n      tag_5\n      jumpi\n      dup1\n      0xb60d4288\n      eq\n      tag_6\n      jumpi\n      dup1\n      0xcd313ad9\n      eq\n      tag_7\n      jumpi\n    tag_1:\n      0x00\n      dup1\n      revert\n        /* \"FundMe.sol\":256:295  uint256 public minimalAmmoundUsd = 5e18 */\n    tag_2:\n      callvalue\n      dup1\n      iszero\n      tag_8\n      jumpi\n      0x00\n      dup1\n      revert\n    tag_8:\n      pop\n      tag_9\n      tag_10\n      jump\t// in\n    tag_9:\n      mload(0x40)\n      tag_11\n      swap2\n      swap1\n      tag_12\n      jump\t// in\n    tag_11:\n      mload(0x40)\n      dup1\n      swap2\n      sub\n      swap1\n      return\n        /* \"FundMe.sol\":335:405  mapping(address funder => uint256 amountFunded) public addressToAmount */\n    tag_3:\n      callvalue\n      dup1\n      iszero\n      tag_13\n      jumpi\n      0x00\n      dup1\n      revert\n    tag_13:\n      pop\n      tag_14\n      0x04\n      dup1\n      calldatasize\n      sub\n      dup2\n      add\n      swap1\n      tag_15\n      swap2\n      swap1\n      tag_16\n      jump\t// in\n    tag_15:\n      tag_17\n      jump\t// in\n    tag_14:\n      mload(0x40)\n      tag_18\n      swap2\n      swap1\n      tag_12\n      jump\t// in\n    tag_18:\n      mload(0x40)\n      dup1\n      swap2\n      sub\n      swap1\n      return\n        /* \"FundMe.sol\":737:1443  function withdraw() public onlyOwner {... */\n    tag_4:\n      callvalue\n      dup1\n      iszero\n      tag_19\n      jumpi\n      0x00\n      dup1\n      revert\n    tag_19:\n      pop\n      tag_20\n      tag_21\n      jump\t// in\n    tag_20:\n      stop\n        /* \"FundMe.sol\":134:154  address public owner */\n    tag_5:\n      callvalue\n      dup1\n      iszero\n      tag_22\n      jumpi\n      0x00\n      dup1\n      revert\n    tag_22:\n      pop\n      tag_23\n      tag_24\n      jump\t// in\n    tag_23:\n      mload(0x40)\n      tag_25\n      swap2\n      swap1\n      tag_26\n      jump\t// in\n    tag_25:\n      mload(0x40)\n      dup1\n      swap2\n      sub\n      swap1\n      return\n        /* \"FundMe.sol\":412:731  function fund() public payable {... */\n    tag_6:\n      tag_27\n      tag_28\n      jump\t// in\n    tag_27:\n      stop\n        /* \"FundMe.sol\":301:329  address[] public listOfFunds */\n    tag_7:\n      callvalue\n      dup1\n      iszero\n      tag_29\n      jumpi\n      0x00\n      dup1\n      revert\n    tag_29:\n      pop\n      tag_30\n      0x04\n      dup1\n      calldatasize\n      sub\n      dup2\n      add\n      swap1\n      tag_31\n      swap2\n      swap1\n      tag_32\n      jump\t// in\n    tag_31:\n      tag_33\n      jump\t// in\n    tag_30:\n      mload(0x40)\n      tag_34\n      swap2\n      swap1\n      tag_26\n      jump\t// in\n    tag_34:\n      mload(0x40)\n      dup1\n      swap2\n      sub\n      swap1\n      return\n        /* \"FundMe.sol\":256:295  uint256 public minimalAmmoundUsd = 5e18 */\n    tag_10:\n      sload(0x01)\n      dup2\n      jump\t// out\n        /* \"FundMe.sol\":335:405  mapping(address funder => uint256 amountFunded) public addressToAmount */\n    tag_17:\n      mstore(0x20, 0x03)\n      dup1\n      0x00\n      mstore\n      keccak256(0x00, 0x40)\n      0x00\n      swap2\n      pop\n      swap1\n      pop\n      sload\n      dup2\n      jump\t// out\n        /* \"FundMe.sol\":737:1443  function withdraw() public onlyOwner {... */\n    tag_21:\n        /* \"FundMe.sol\":1502:1507  owner */\n      0x00\n      dup1\n      sload\n      swap1\n      0x0100\n      exp\n      swap1\n      div\n      0xffffffffffffffffffffffffffffffffffffffff\n      and\n        /* \"FundMe.sol\":1488:1507  msg.sender == owner */\n      0xffffffffffffffffffffffffffffffffffffffff\n      and\n        /* \"FundMe.sol\":1488:1498  msg.sender */\n      caller\n        /* \"FundMe.sol\":1488:1507  msg.sender == owner */\n      0xffffffffffffffffffffffffffffffffffffffff\n      and\n      eq\n        /* \"FundMe.sol\":1480:1542  require(msg.sender == owner, \"Not the owner of this contract\") */\n      tag_36\n      jumpi\n      mload(0x40)\n      0x08c379a000000000000000000000000000000000000000000000000000000000\n      dup2\n      mstore\n      0x04\n      add\n      tag_37\n      swap1\n      tag_38\n      jump\t// in\n    tag_37:\n      mload(0x40)\n      dup1\n      swap2\n      sub\n      swap1\n      revert\n    tag_36:\n        /* \"FundMe.sol\":789:806  uint256 fundIndex */\n      0x00\n        /* \"FundMe.sol\":784:1437  for (uint256 fundIndex = 0; fundIndex<listOfFunds.length; fundIndex++) ... */\n    tag_40:\n        /* \"FundMe.sol\":822:833  listOfFunds */\n      0x02\n        /* \"FundMe.sol\":822:840  listOfFunds.length */\n      dup1\n      sload\n      swap1\n      pop\n        /* \"FundMe.sol\":812:821  fundIndex */\n      dup2\n        /* \"FundMe.sol\":812:840  fundIndex<listOfFunds.length */\n      lt\n        /* \"FundMe.sol\":784:1437  for (uint256 fundIndex = 0; fundIndex<listOfFunds.length; fundIndex++) ... */\n      iszero\n      tag_41\n      jumpi\n        /* \"FundMe.sol\":878:892  address funder */\n      0x00\n        /* \"FundMe.sol\":895:906  listOfFunds */\n      0x02\n        /* \"FundMe.sol\":907:916  fundIndex */\n      dup3\n        /* \"FundMe.sol\":895:917  listOfFunds[fundIndex] */\n      dup2\n      sload\n      dup2\n      lt\n      tag_43\n      jumpi\n      tag_44\n      tag_45\n      jump\t// in\n    tag_44:\n    tag_43:\n      swap1\n      0x00\n      mstore\n      keccak256(0x00, 0x20)\n      add\n      0x00\n      swap1\n      sload\n      swap1\n      0x0100\n      exp\n      swap1\n      div\n      0xffffffffffffffffffffffffffffffffffffffff\n      and\n        /* \"FundMe.sol\":878:917  address funder = listOfFunds[fundIndex] */\n      swap1\n      pop\n        /* \"FundMe.sol\":957:958  0 */\n      0x00\n        /* \"FundMe.sol\":931:946  addressToAmount */\n      0x03\n        /* \"FundMe.sol\":931:954  addressToAmount[funder] */\n      0x00\n        /* \"FundMe.sol\":947:953  funder */\n      dup4\n        /* \"FundMe.sol\":931:954  addressToAmount[funder] */\n      0xffffffffffffffffffffffffffffffffffffffff\n      and\n      0xffffffffffffffffffffffffffffffffffffffff\n      and\n      dup2\n      mstore\n      0x20\n      add\n      swap1\n      dup2\n      mstore\n      0x20\n      add\n      0x00\n      keccak256\n        /* \"FundMe.sol\":931:958  addressToAmount[funder] = 0 */\n      dup2\n      swap1\n      sstore\n      pop\n        /* \"FundMe.sol\":1000:1001  0 */\n      0x00\n        /* \"FundMe.sol\":986:1002  new address[](0) */\n      0xffffffffffffffff\n      dup2\n      gt\n      iszero\n      tag_47\n      jumpi\n      tag_48\n      tag_49\n      jump\t// in\n    tag_48:\n    tag_47:\n      mload(0x40)\n      swap1\n      dup1\n      dup3\n      mstore\n      dup1\n      0x20\n      mul\n      0x20\n      add\n      dup3\n      add\n      0x40\n      mstore\n      dup1\n      iszero\n      tag_50\n      jumpi\n      dup2\n      0x20\n      add\n      0x20\n      dup3\n      mul\n      dup1\n      calldatasize\n      dup4\n      calldatacopy\n      dup1\n      dup3\n      add\n      swap2\n      pop\n      pop\n      swap1\n      pop\n    tag_50:\n      pop\n        /* \"FundMe.sol\":972:983  listOfFunds */\n      0x02\n        /* \"FundMe.sol\":972:1002  listOfFunds = new address[](0) */\n      swap1\n      dup1\n      mload\n      swap1\n      0x20\n      add\n      swap1\n      tag_51\n      swap3\n      swap2\n      swap1\n      tag_52\n      jump\t// in\n    tag_51:\n      pop\n        /* \"FundMe.sol\":1300:1315  bool statusCall */\n      0x00\n        /* \"FundMe.sol\":1328:1338  msg.sender */\n      caller\n        /* \"FundMe.sol\":1320:1344  payable(msg.sender).call */\n      0xffffffffffffffffffffffffffffffffffffffff\n      and\n        /* \"FundMe.sol\":1352:1373  address(this).balance */\n      selfbalance\n        /* \"FundMe.sol\":1320:1378  payable(msg.sender).call{value: address(this).balance}(\"\") */\n      mload(0x40)\n      tag_53\n      swap1\n      tag_54\n      jump\t// in\n    tag_53:\n      0x00\n      mload(0x40)\n      dup1\n      dup4\n      sub\n      dup2\n      dup6\n      dup8\n      gas\n      call\n      swap3\n      pop\n      pop\n      pop\n      returndatasize\n      dup1\n      0x00\n      dup2\n      eq\n      tag_57\n      jumpi\n      mload(0x40)\n      swap2\n      pop\n      and(add(returndatasize, 0x3f), not(0x1f))\n      dup3\n      add\n      0x40\n      mstore\n      returndatasize\n      dup3\n      mstore\n      returndatasize\n      0x00\n      0x20\n      dup5\n      add\n      returndatacopy\n      jump(tag_56)\n    tag_57:\n      0x60\n      swap2\n      pop\n    tag_56:\n      pop\n        /* \"FundMe.sol\":1299:1378  (bool statusCall,) = payable(msg.sender).call{value: address(this).balance}(\"\") */\n      pop\n      swap1\n      pop\n        /* \"FundMe.sol\":1400:1410  statusCall */\n      dup1\n        /* \"FundMe.sol\":1392:1425  require(statusCall,\"Call failed\") */\n      tag_58\n      jumpi\n      mload(0x40)\n      0x08c379a000000000000000000000000000000000000000000000000000000000\n      dup2\n      mstore\n      0x04\n      add\n      tag_59\n      swap1\n      tag_60\n      jump\t// in\n    tag_59:\n      mload(0x40)\n      dup1\n      swap2\n      sub\n      swap1\n      revert\n    tag_58:\n        /* \"FundMe.sol\":864:1437  {... */\n      pop\n      pop\n        /* \"FundMe.sol\":842:853  fundIndex++ */\n      dup1\n      dup1\n      0x01\n      add\n      swap2\n      pop\n      pop\n        /* \"FundMe.sol\":784:1437  for (uint256 fundIndex = 0; fundIndex<listOfFunds.length; fundIndex++) ... */\n      jump(tag_40)\n    tag_41:\n      pop\n        /* \"FundMe.sol\":737:1443  function withdraw() public onlyOwner {... */\n      jump\t// out\n        /* \"FundMe.sol\":134:154  address public owner */\n    tag_24:\n      0x00\n      dup1\n      sload\n      swap1\n      0x0100\n      exp\n      swap1\n      div\n      0xffffffffffffffffffffffffffffffffffffffff\n      and\n      dup2\n      jump\t// out\n        /* \"FundMe.sol\":412:731  function fund() public payable {... */\n    tag_28:\n        /* \"FundMe.sol\":578:595  minimalAmmoundUsd */\n      sload(0x01)\n        /* \"FundMe.sol\":545:574  msg.value.getConversionRate() */\n      tag_62\n        /* \"FundMe.sol\":545:554  msg.value */\n      callvalue\n        /* \"FundMe.sol\":545:572  msg.value.getConversionRate */\n      tag_63\n        /* \"FundMe.sol\":545:574  msg.value.getConversionRate() */\n      jump\t// in\n    tag_62:\n        /* \"FundMe.sol\":545:595  msg.value.getConversionRate() >= minimalAmmoundUsd */\n      lt\n      iszero\n        /* \"FundMe.sol\":537:626  require(msg.value.getConversionRate() >= minimalAmmoundUsd,\"didn't send enough of funds\") */\n      tag_64\n      jumpi\n      mload(0x40)\n      0x08c379a000000000000000000000000000000000000000000000000000000000\n      dup2\n      mstore\n      0x04\n      add\n      tag_65\n      swap1\n      tag_66\n      jump\t// in\n    tag_65:\n      mload(0x40)\n      dup1\n      swap2\n      sub\n      swap1\n      revert\n    tag_64:\n        /* \"FundMe.sol\":646:657  listOfFunds */\n      0x02\n        /* \"FundMe.sol\":663:673  msg.sender */\n      caller\n        /* \"FundMe.sol\":646:674  listOfFunds.push(msg.sender) */\n      swap1\n      dup1\n      0x01\n      dup2\n      sload\n      add\n      dup1\n      dup3\n      sstore\n      dup1\n      swap2\n      pop\n      pop\n      0x01\n      swap1\n      sub\n      swap1\n      0x00\n      mstore\n      keccak256(0x00, 0x20)\n      add\n      0x00\n      swap1\n      swap2\n      swap1\n      swap2\n      swap1\n      swap2\n      0x0100\n      exp\n      dup2\n      sload\n      dup2\n      0xffffffffffffffffffffffffffffffffffffffff\n      mul\n      not\n      and\n      swap1\n      dup4\n      0xffffffffffffffffffffffffffffffffffffffff\n      and\n      mul\n      or\n      swap1\n      sstore\n      pop\n        /* \"FundMe.sol\":715:724  msg.value */\n      callvalue\n        /* \"FundMe.sol\":684:699  addressToAmount */\n      0x03\n        /* \"FundMe.sol\":684:711  addressToAmount[msg.sender] */\n      0x00\n        /* \"FundMe.sol\":700:710  msg.sender */\n      caller\n        /* \"FundMe.sol\":684:711  addressToAmount[msg.sender] */\n      0xffffffffffffffffffffffffffffffffffffffff\n      and\n      0xffffffffffffffffffffffffffffffffffffffff\n      and\n      dup2\n      mstore\n      0x20\n      add\n      swap1\n      dup2\n      mstore\n      0x20\n      add\n      0x00\n      keccak256\n      0x00\n        /* \"FundMe.sol\":684:724  addressToAmount[msg.sender] += msg.value */\n      dup3\n      dup3\n      sload\n      tag_68\n      swap2\n      swap1\n      tag_69\n      jump\t// in\n    tag_68:\n      swap3\n      pop\n      pop\n      dup2\n      swap1\n      sstore\n      pop\n        /* \"FundMe.sol\":412:731  function fund() public payable {... */\n      jump\t// out\n        /* \"FundMe.sol\":301:329  address[] public listOfFunds */\n    tag_33:\n      0x02\n      dup2\n      dup2\n      sload\n      dup2\n      lt\n      tag_70\n      jumpi\n      0x00\n      dup1\n      revert\n    tag_70:\n      swap1\n      0x00\n      mstore\n      keccak256(0x00, 0x20)\n      add\n      0x00\n      swap2\n      pop\n      sload\n      swap1\n      0x0100\n      exp\n      swap1\n      div\n      0xffffffffffffffffffffffffffffffffffffffff\n      and\n      dup2\n      jump\t// out\n        /* \"PriceConverter.sol\":547:766  function getConversionRate(uint256 ethAmount) internal view returns(uint256) {... */\n    tag_63:\n        /* \"PriceConverter.sol\":615:622  uint256 */\n      0x00\n        /* \"PriceConverter.sol\":634:650  uint256 ethPrice */\n      dup1\n        /* \"PriceConverter.sol\":653:663  getPrice() */\n      tag_73\n        /* \"PriceConverter.sol\":653:661  getPrice */\n      tag_74\n        /* \"PriceConverter.sol\":653:663  getPrice() */\n      jump\t// in\n    tag_73:\n        /* \"PriceConverter.sol\":634:663  uint256 ethPrice = getPrice() */\n      swap1\n      pop\n        /* \"PriceConverter.sol\":673:695  uint256 ethAmountInUsd */\n      0x00\n        /* \"PriceConverter.sol\":724:728  1e18 */\n      0x0de0b6b3a7640000\n        /* \"PriceConverter.sol\":711:720  ethAmount */\n      dup5\n        /* \"PriceConverter.sol\":700:708  ethPrice */\n      dup4\n        /* \"PriceConverter.sol\":700:720  ethPrice * ethAmount */\n      tag_75\n      swap2\n      swap1\n      tag_76\n      jump\t// in\n    tag_75:\n        /* \"PriceConverter.sol\":699:728  (ethPrice * ethAmount) / 1e18 */\n      tag_77\n      swap2\n      swap1\n      tag_78\n      jump\t// in\n    tag_77:\n        /* \"PriceConverter.sol\":673:728  uint256 ethAmountInUsd =  (ethPrice * ethAmount) / 1e18 */\n      swap1\n      pop\n        /* \"PriceConverter.sol\":745:759  ethAmountInUsd */\n      dup1\n        /* \"PriceConverter.sol\":738:759  return ethAmountInUsd */\n      swap3\n      pop\n      pop\n      pop\n        /* \"PriceConverter.sol\":547:766  function getConversionRate(uint256 ethAmount) internal view returns(uint256) {... */\n      swap2\n      swap1\n      pop\n      jump\t// out\n        /* \"PriceConverter.sol\":202:541  function getPrice() internal view returns(uint256) {... */\n    tag_74:\n        /* \"PriceConverter.sol\":244:251  uint256 */\n      0x00\n        /* \"PriceConverter.sol\":339:370  AggregatorV3Interface priceFeed */\n      dup1\n        /* \"PriceConverter.sol\":395:437  0x694AA1769357215DE4FAC081bf1f309aDC325306 */\n      0x694aa1769357215de4fac081bf1f309adc325306\n        /* \"PriceConverter.sol\":339:438  AggregatorV3Interface priceFeed = AggregatorV3Interface(0x694AA1769357215DE4FAC081bf1f309aDC325306) */\n      swap1\n      pop\n        /* \"PriceConverter.sol\":450:462  int256 price */\n      0x00\n        /* \"PriceConverter.sol\":469:478  priceFeed */\n      dup2\n        /* \"PriceConverter.sol\":469:494  priceFeed.latestRoundData */\n      0xffffffffffffffffffffffffffffffffffffffff\n      and\n      0xfeaf968c\n        /* \"PriceConverter.sol\":469:496  priceFeed.latestRoundData() */\n      mload(0x40)\n      dup2\n      0xffffffff\n      and\n      0xe0\n      shl\n      dup2\n      mstore\n      0x04\n      add\n      0xa0\n      mload(0x40)\n      dup1\n      dup4\n      sub\n      dup2\n      dup7\n      gas\n      staticcall\n      iszero\n      dup1\n      iszero\n      tag_81\n      jumpi\n      returndatasize\n      0x00\n      dup1\n      returndatacopy\n      revert(0x00, returndatasize)\n    tag_81:\n      pop\n      pop\n      pop\n      pop\n      mload(0x40)\n      returndatasize\n      not(0x1f)\n      0x1f\n      dup3\n      add\n      and\n      dup3\n      add\n      dup1\n      0x40\n      mstore\n      pop\n      dup2\n      add\n      swap1\n      tag_82\n      swap2\n      swap1\n      tag_83\n      jump\t// in\n    tag_82:\n        /* \"PriceConverter.sol\":448:496  (,int256 price,,,) = priceFeed.latestRoundData() */\n      pop\n      pop\n      pop\n      swap2\n      pop\n      pop\n        /* \"PriceConverter.sol\":529:533  1e10 */\n      0x02540be400\n        /* \"PriceConverter.sol\":521:526  price */\n      dup2\n        /* \"PriceConverter.sol\":521:533  price * 1e10 */\n      tag_84\n      swap2\n      swap1\n      tag_85\n      jump\t// in\n    tag_84:\n        /* \"PriceConverter.sol\":506:534  return uint256(price * 1e10) */\n      swap3\n      pop\n      pop\n      pop\n        /* \"PriceConverter.sol\":202:541  function getPrice() internal view returns(uint256) {... */\n      swap1\n      jump\t// out\n    tag_52:\n      dup3\n      dup1\n      sload\n      dup3\n      dup3\n      sstore\n      swap1\n      0x00\n      mstore\n      keccak256(0x00, 0x20)\n      swap1\n      dup2\n      add\n      swap3\n      dup3\n      iszero\n      tag_86\n      jumpi\n      swap2\n      0x20\n      mul\n      dup3\n      add\n    tag_87:\n      dup3\n      dup2\n      gt\n      iszero\n      tag_88\n      jumpi\n      dup3\n      mload\n      dup3\n      exp(0x0100, 0x00)\n      dup2\n      sload\n      dup2\n      0xffffffffffffffffffffffffffffffffffffffff\n      mul\n      not\n      and\n      swap1\n      dup4\n      0xffffffffffffffffffffffffffffffffffffffff\n      and\n      mul\n      or\n      swap1\n      sstore\n      pop\n      swap2\n      0x20\n      add\n      swap2\n      swap1\n      0x01\n      add\n      swap1\n      jump(tag_87)\n    tag_88:\n    tag_86:\n      pop\n      swap1\n      pop\n      tag_89\n      swap2\n      swap1\n      tag_90\n      jump\t// in\n    tag_89:\n      pop\n      swap1\n      jump\t// out\n    tag_90:\n    tag_91:\n      dup1\n      dup3\n      gt\n      iszero\n      tag_92\n      jumpi\n      0x00\n      dup2\n      0x00\n      swap1\n      sstore\n      pop\n      0x01\n      add\n      jump(tag_91)\n    tag_92:\n      pop\n      swap1\n      jump\t// out\n        /* \"#utility.yul\":7:84   */\n    tag_93:\n        /* \"#utility.yul\":44:51   */\n      0x00\n        /* \"#utility.yul\":73:78   */\n      dup2\n        /* \"#utility.yul\":62:78   */\n      swap1\n      pop\n        /* \"#utility.yul\":7:84   */\n      swap2\n      swap1\n      pop\n      jump\t// out\n        /* \"#utility.yul\":90:208   */\n    tag_94:\n        /* \"#utility.yul\":177:201   */\n      tag_127\n        /* \"#utility.yul\":195:200   */\n      dup2\n        /* \"#utility.yul\":177:201   */\n      tag_93\n      jump\t// in\n    tag_127:\n        /* \"#utility.yul\":172:175   */\n      dup3\n        /* \"#utility.yul\":165:202   */\n      mstore\n        /* \"#utility.yul\":90:208   */\n      pop\n      pop\n      jump\t// out\n        /* \"#utility.yul\":214:436   */\n    tag_12:\n        /* \"#utility.yul\":307:311   */\n      0x00\n        /* \"#utility.yul\":345:347   */\n      0x20\n        /* \"#utility.yul\":334:343   */\n      dup3\n        /* \"#utility.yul\":330:348   */\n      add\n        /* \"#utility.yul\":322:348   */\n      swap1\n      pop\n        /* \"#utility.yul\":358:429   */\n      tag_129\n        /* \"#utility.yul\":426:427   */\n      0x00\n        /* \"#utility.yul\":415:424   */\n      dup4\n        /* \"#utility.yul\":411:428   */\n      add\n        /* \"#utility.yul\":402:408   */\n      dup5\n        /* \"#utility.yul\":358:429   */\n      tag_94\n      jump\t// in\n    tag_129:\n        /* \"#utility.yul\":214:436   */\n      swap3\n      swap2\n      pop\n      pop\n      jump\t// out\n        /* \"#utility.yul\":523:640   */\n    tag_96:\n        /* \"#utility.yul\":632:633   */\n      0x00\n        /* \"#utility.yul\":629:630   */\n      dup1\n        /* \"#utility.yul\":622:634   */\n      revert\n        /* \"#utility.yul\":769:895   */\n    tag_98:\n        /* \"#utility.yul\":806:813   */\n      0x00\n        /* \"#utility.yul\":846:888   */\n      0xffffffffffffffffffffffffffffffffffffffff\n        /* \"#utility.yul\":839:844   */\n      dup3\n        /* \"#utility.yul\":835:889   */\n      and\n        /* \"#utility.yul\":824:889   */\n      swap1\n      pop\n        /* \"#utility.yul\":769:895   */\n      swap2\n      swap1\n      pop\n      jump\t// out\n        /* \"#utility.yul\":901:997   */\n    tag_99:\n        /* \"#utility.yul\":938:945   */\n      0x00\n        /* \"#utility.yul\":967:991   */\n      tag_135\n        /* \"#utility.yul\":985:990   */\n      dup3\n        /* \"#utility.yul\":967:991   */\n      tag_98\n      jump\t// in\n    tag_135:\n        /* \"#utility.yul\":956:991   */\n      swap1\n      pop\n        /* \"#utility.yul\":901:997   */\n      swap2\n      swap1\n      pop\n      jump\t// out\n        /* \"#utility.yul\":1003:1125   */\n    tag_100:\n        /* \"#utility.yul\":1076:1100   */\n      tag_137\n        /* \"#utility.yul\":1094:1099   */\n      dup2\n        /* \"#utility.yul\":1076:1100   */\n      tag_99\n      jump\t// in\n    tag_137:\n        /* \"#utility.yul\":1069:1074   */\n      dup2\n        /* \"#utility.yul\":1066:1101   */\n      eq\n        /* \"#utility.yul\":1056:1119   */\n      tag_138\n      jumpi\n        /* \"#utility.yul\":1115:1116   */\n      0x00\n        /* \"#utility.yul\":1112:1113   */\n      dup1\n        /* \"#utility.yul\":1105:1117   */\n      revert\n        /* \"#utility.yul\":1056:1119   */\n    tag_138:\n        /* \"#utility.yul\":1003:1125   */\n      pop\n      jump\t// out\n        /* \"#utility.yul\":1131:1270   */\n    tag_101:\n        /* \"#utility.yul\":1177:1182   */\n      0x00\n        /* \"#utility.yul\":1215:1221   */\n      dup2\n        /* \"#utility.yul\":1202:1222   */\n      calldataload\n        /* \"#utility.yul\":1193:1222   */\n      swap1\n      pop\n        /* \"#utility.yul\":1231:1264   */\n      tag_140\n        /* \"#utility.yul\":1258:1263   */\n      dup2\n        /* \"#utility.yul\":1231:1264   */\n      tag_100\n      jump\t// in\n    tag_140:\n        /* \"#utility.yul\":1131:1270   */\n      swap3\n      swap2\n      pop\n      pop\n      jump\t// out\n        /* \"#utility.yul\":1276:1605   */\n    tag_16:\n        /* \"#utility.yul\":1335:1341   */\n      0x00\n        /* \"#utility.yul\":1384:1386   */\n      0x20\n        /* \"#utility.yul\":1372:1381   */\n      dup3\n        /* \"#utility.yul\":1363:1370   */\n      dup5\n        /* \"#utility.yul\":1359:1382   */\n      sub\n        /* \"#utility.yul\":1355:1387   */\n      slt\n        /* \"#utility.yul\":1352:1471   */\n      iszero\n      tag_142\n      jumpi\n        /* \"#utility.yul\":1390:1469   */\n      tag_143\n      tag_96\n      jump\t// in\n    tag_143:\n        /* \"#utility.yul\":1352:1471   */\n    tag_142:\n        /* \"#utility.yul\":1510:1511   */\n      0x00\n        /* \"#utility.yul\":1535:1588   */\n      tag_144\n        /* \"#utility.yul\":1580:1587   */\n      dup5\n        /* \"#utility.yul\":1571:1577   */\n      dup3\n        /* \"#utility.yul\":1560:1569   */\n      dup6\n        /* \"#utility.yul\":1556:1578   */\n      add\n        /* \"#utility.yul\":1535:1588   */\n      tag_101\n      jump\t// in\n    tag_144:\n        /* \"#utility.yul\":1525:1588   */\n      swap2\n      pop\n        /* \"#utility.yul\":1481:1598   */\n      pop\n        /* \"#utility.yul\":1276:1605   */\n      swap3\n      swap2\n      pop\n      pop\n      jump\t// out\n        /* \"#utility.yul\":1611:1729   */\n    tag_102:\n        /* \"#utility.yul\":1698:1722   */\n      tag_146\n        /* \"#utility.yul\":1716:1721   */\n      dup2\n        /* \"#utility.yul\":1698:1722   */\n      tag_99\n      jump\t// in\n    tag_146:\n        /* \"#utility.yul\":1693:1696   */\n      dup3\n        /* \"#utility.yul\":1686:1723   */\n      mstore\n        /* \"#utility.yul\":1611:1729   */\n      pop\n      pop\n      jump\t// out\n        /* \"#utility.yul\":1735:1957   */\n    tag_26:\n        /* \"#utility.yul\":1828:1832   */\n      0x00\n        /* \"#utility.yul\":1866:1868   */\n      0x20\n        /* \"#utility.yul\":1855:1864   */\n      dup3\n        /* \"#utility.yul\":1851:1869   */\n      add\n        /* \"#utility.yul\":1843:1869   */\n      swap1\n      pop\n        /* \"#utility.yul\":1879:1950   */\n      tag_148\n        /* \"#utility.yul\":1947:1948   */\n      0x00\n        /* \"#utility.yul\":1936:1945   */\n      dup4\n        /* \"#utility.yul\":1932:1949   */\n      add\n        /* \"#utility.yul\":1923:1929   */\n      dup5\n        /* \"#utility.yul\":1879:1950   */\n      tag_102\n      jump\t// in\n    tag_148:\n        /* \"#utility.yul\":1735:1957   */\n      swap3\n      swap2\n      pop\n      pop\n      jump\t// out\n        /* \"#utility.yul\":1963:2085   */\n    tag_103:\n        /* \"#utility.yul\":2036:2060   */\n      tag_150\n        /* \"#utility.yul\":2054:2059   */\n      dup2\n        /* \"#utility.yul\":2036:2060   */\n      tag_93\n      jump\t// in\n    tag_150:\n        /* \"#utility.yul\":2029:2034   */\n      dup2\n        /* \"#utility.yul\":2026:2061   */\n      eq\n        /* \"#utility.yul\":2016:2079   */\n      tag_151\n      jumpi\n        /* \"#utility.yul\":2075:2076   */\n      0x00\n        /* \"#utility.yul\":2072:2073   */\n      dup1\n        /* \"#utility.yul\":2065:2077   */\n      revert\n        /* \"#utility.yul\":2016:2079   */\n    tag_151:\n        /* \"#utility.yul\":1963:2085   */\n      pop\n      jump\t// out\n        /* \"#utility.yul\":2091:2230   */\n    tag_104:\n        /* \"#utility.yul\":2137:2142   */\n      0x00\n        /* \"#utility.yul\":2175:2181   */\n      dup2\n        /* \"#utility.yul\":2162:2182   */\n      calldataload\n        /* \"#utility.yul\":2153:2182   */\n      swap1\n      pop\n        /* \"#utility.yul\":2191:2224   */\n      tag_153\n        /* \"#utility.yul\":2218:2223   */\n      dup2\n        /* \"#utility.yul\":2191:2224   */\n      tag_103\n      jump\t// in\n    tag_153:\n        /* \"#utility.yul\":2091:2230   */\n      swap3\n      swap2\n      pop\n      pop\n      jump\t// out\n        /* \"#utility.yul\":2236:2565   */\n    tag_32:\n        /* \"#utility.yul\":2295:2301   */\n      0x00\n        /* \"#utility.yul\":2344:2346   */\n      0x20\n        /* \"#utility.yul\":2332:2341   */\n      dup3\n        /* \"#utility.yul\":2323:2330   */\n      dup5\n        /* \"#utility.yul\":2319:2342   */\n      sub\n        /* \"#utility.yul\":2315:2347   */\n      slt\n        /* \"#utility.yul\":2312:2431   */\n      iszero\n      tag_155\n      jumpi\n        /* \"#utility.yul\":2350:2429   */\n      tag_156\n      tag_96\n      jump\t// in\n    tag_156:\n        /* \"#utility.yul\":2312:2431   */\n    tag_155:\n        /* \"#utility.yul\":2470:2471   */\n      0x00\n        /* \"#utility.yul\":2495:2548   */\n      tag_157\n        /* \"#utility.yul\":2540:2547   */\n      dup5\n        /* \"#utility.yul\":2531:2537   */\n      dup3\n        /* \"#utility.yul\":2520:2529   */\n      dup6\n        /* \"#utility.yul\":2516:2538   */\n      add\n        /* \"#utility.yul\":2495:2548   */\n      tag_104\n      jump\t// in\n    tag_157:\n        /* \"#utility.yul\":2485:2548   */\n      swap2\n      pop\n        /* \"#utility.yul\":2441:2558   */\n      pop\n        /* \"#utility.yul\":2236:2565   */\n      swap3\n      swap2\n      pop\n      pop\n      jump\t// out\n        /* \"#utility.yul\":2571:2740   */\n    tag_105:\n        /* \"#utility.yul\":2655:2666   */\n      0x00\n        /* \"#utility.yul\":2689:2695   */\n      dup3\n        /* \"#utility.yul\":2684:2687   */\n      dup3\n        /* \"#utility.yul\":2677:2696   */\n      mstore\n        /* \"#utility.yul\":2729:2733   */\n      0x20\n        /* \"#utility.yul\":2724:2727   */\n      dup3\n        /* \"#utility.yul\":2720:2734   */\n      add\n        /* \"#utility.yul\":2705:2734   */\n      swap1\n      pop\n        /* \"#utility.yul\":2571:2740   */\n      swap3\n      swap2\n      pop\n      pop\n      jump\t// out\n        /* \"#utility.yul\":2746:2926   */\n    tag_106:\n        /* \"#utility.yul\":2886:2918   */\n      0x4e6f7420746865206f776e6572206f66207468697320636f6e74726163740000\n        /* \"#utility.yul\":2882:2883   */\n      0x00\n        /* \"#utility.yul\":2874:2880   */\n      dup3\n        /* \"#utility.yul\":2870:2884   */\n      add\n        /* \"#utility.yul\":2863:2919   */\n      mstore\n        /* \"#utility.yul\":2746:2926   */\n      pop\n      jump\t// out\n        /* \"#utility.yul\":2932:3298   */\n    tag_107:\n        /* \"#utility.yul\":3074:3077   */\n      0x00\n        /* \"#utility.yul\":3095:3162   */\n      tag_161\n        /* \"#utility.yul\":3159:3161   */\n      0x1e\n        /* \"#utility.yul\":3154:3157   */\n      dup4\n        /* \"#utility.yul\":3095:3162   */\n      tag_105\n      jump\t// in\n    tag_161:\n        /* \"#utility.yul\":3088:3162   */\n      swap2\n      pop\n        /* \"#utility.yul\":3171:3264   */\n      tag_162\n        /* \"#utility.yul\":3260:3263   */\n      dup3\n        /* \"#utility.yul\":3171:3264   */\n      tag_106\n      jump\t// in\n    tag_162:\n        /* \"#utility.yul\":3289:3291   */\n      0x20\n        /* \"#utility.yul\":3284:3287   */\n      dup3\n        /* \"#utility.yul\":3280:3292   */\n      add\n        /* \"#utility.yul\":3273:3292   */\n      swap1\n      pop\n        /* \"#utility.yul\":2932:3298   */\n      swap2\n      swap1\n      pop\n      jump\t// out\n        /* \"#utility.yul\":3304:3723   */\n    tag_38:\n        /* \"#utility.yul\":3470:3474   */\n      0x00\n        /* \"#utility.yul\":3508:3510   */\n      0x20\n        /* \"#utility.yul\":3497:3506   */\n      dup3\n        /* \"#utility.yul\":3493:3511   */\n      add\n        /* \"#utility.yul\":3485:3511   */\n      swap1\n      pop\n        /* \"#utility.yul\":3557:3566   */\n      dup2\n        /* \"#utility.yul\":3551:3555   */\n      dup2\n        /* \"#utility.yul\":3547:3567   */\n      sub\n        /* \"#utility.yul\":3543:3544   */\n      0x00\n        /* \"#utility.yul\":3532:3541   */\n      dup4\n        /* \"#utility.yul\":3528:3545   */\n      add\n        /* \"#utility.yul\":3521:3568   */\n      mstore\n        /* \"#utility.yul\":3585:3716   */\n      tag_164\n        /* \"#utility.yul\":3711:3715   */\n      dup2\n        /* \"#utility.yul\":3585:3716   */\n      tag_107\n      jump\t// in\n    tag_164:\n        /* \"#utility.yul\":3577:3716   */\n      swap1\n      pop\n        /* \"#utility.yul\":3304:3723   */\n      swap2\n      swap1\n      pop\n      jump\t// out\n        /* \"#utility.yul\":3729:3909   */\n    tag_45:\n        /* \"#utility.yul\":3777:3854   */\n      0x4e487b7100000000000000000000000000000000000000000000000000000000\n        /* \"#utility.yul\":3774:3775   */\n      0x00\n        /* \"#utility.yul\":3767:3855   */\n      mstore\n        /* \"#utility.yul\":3874:3878   */\n      0x32\n        /* \"#utility.yul\":3871:3872   */\n      0x04\n        /* \"#utility.yul\":3864:3879   */\n      mstore\n        /* \"#utility.yul\":3898:3902   */\n      0x24\n        /* \"#utility.yul\":3895:3896   */\n      0x00\n        /* \"#utility.yul\":3888:3903   */\n      revert\n        /* \"#utility.yul\":3915:4095   */\n    tag_49:\n        /* \"#utility.yul\":3963:4040   */\n      0x4e487b7100000000000000000000000000000000000000000000000000000000\n        /* \"#utility.yul\":3960:3961   */\n      0x00\n        /* \"#utility.yul\":3953:4041   */\n      mstore\n        /* \"#utility.yul\":4060:4064   */\n      0x41\n        /* \"#utility.yul\":4057:4058   */\n      0x04\n        /* \"#utility.yul\":4050:4065   */\n      mstore\n        /* \"#utility.yul\":4084:4088   */\n      0x24\n        /* \"#utility.yul\":4081:4082   */\n      0x00\n        /* \"#utility.yul\":4074:4089   */\n      revert\n        /* \"#utility.yul\":4101:4248   */\n    tag_108:\n        /* \"#utility.yul\":4202:4213   */\n      0x00\n        /* \"#utility.yul\":4239:4242   */\n      dup2\n        /* \"#utility.yul\":4224:4242   */\n      swap1\n      pop\n        /* \"#utility.yul\":4101:4248   */\n      swap3\n      swap2\n      pop\n      pop\n      jump\t// out\n        /* \"#utility.yul\":4254:4368   */\n    tag_109:\n      pop\n      jump\t// out\n        /* \"#utility.yul\":4374:4772   */\n    tag_110:\n        /* \"#utility.yul\":4533:4536   */\n      0x00\n        /* \"#utility.yul\":4554:4637   */\n      tag_170\n        /* \"#utility.yul\":4635:4636   */\n      0x00\n        /* \"#utility.yul\":4630:4633   */\n      dup4\n        /* \"#utility.yul\":4554:4637   */\n      tag_108\n      jump\t// in\n    tag_170:\n        /* \"#utility.yul\":4547:4637   */\n      swap2\n      pop\n        /* \"#utility.yul\":4646:4739   */\n      tag_171\n        /* \"#utility.yul\":4735:4738   */\n      dup3\n        /* \"#utility.yul\":4646:4739   */\n      tag_109\n      jump\t// in\n    tag_171:\n        /* \"#utility.yul\":4764:4765   */\n      0x00\n        /* \"#utility.yul\":4759:4762   */\n      dup3\n        /* \"#utility.yul\":4755:4766   */\n      add\n        /* \"#utility.yul\":4748:4766   */\n      swap1\n      pop\n        /* \"#utility.yul\":4374:4772   */\n      swap2\n      swap1\n      pop\n      jump\t// out\n        /* \"#utility.yul\":4778:5157   */\n    tag_54:\n        /* \"#utility.yul\":4962:4965   */\n      0x00\n        /* \"#utility.yul\":4984:5131   */\n      tag_173\n        /* \"#utility.yul\":5127:5130   */\n      dup3\n        /* \"#utility.yul\":4984:5131   */\n      tag_110\n      jump\t// in\n    tag_173:\n        /* \"#utility.yul\":4977:5131   */\n      swap2\n      pop\n        /* \"#utility.yul\":5148:5151   */\n      dup2\n        /* \"#utility.yul\":5141:5151   */\n      swap1\n      pop\n        /* \"#utility.yul\":4778:5157   */\n      swap2\n      swap1\n      pop\n      jump\t// out\n        /* \"#utility.yul\":5163:5324   */\n    tag_111:\n        /* \"#utility.yul\":5303:5316   */\n      0x43616c6c206661696c6564000000000000000000000000000000000000000000\n        /* \"#utility.yul\":5299:5300   */\n      0x00\n        /* \"#utility.yul\":5291:5297   */\n      dup3\n        /* \"#utility.yul\":5287:5301   */\n      add\n        /* \"#utility.yul\":5280:5317   */\n      mstore\n        /* \"#utility.yul\":5163:5324   */\n      pop\n      jump\t// out\n        /* \"#utility.yul\":5330:5696   */\n    tag_112:\n        /* \"#utility.yul\":5472:5475   */\n      0x00\n        /* \"#utility.yul\":5493:5560   */\n      tag_176\n        /* \"#utility.yul\":5557:5559   */\n      0x0b\n        /* \"#utility.yul\":5552:5555   */\n      dup4\n        /* \"#utility.yul\":5493:5560   */\n      tag_105\n      jump\t// in\n    tag_176:\n        /* \"#utility.yul\":5486:5560   */\n      swap2\n      pop\n        /* \"#utility.yul\":5569:5662   */\n      tag_177\n        /* \"#utility.yul\":5658:5661   */\n      dup3\n        /* \"#utility.yul\":5569:5662   */\n      tag_111\n      jump\t// in\n    tag_177:\n        /* \"#utility.yul\":5687:5689   */\n      0x20\n        /* \"#utility.yul\":5682:5685   */\n      dup3\n        /* \"#utility.yul\":5678:5690   */\n      add\n        /* \"#utility.yul\":5671:5690   */\n      swap1\n      pop\n        /* \"#utility.yul\":5330:5696   */\n      swap2\n      swap1\n      pop\n      jump\t// out\n        /* \"#utility.yul\":5702:6121   */\n    tag_60:\n        /* \"#utility.yul\":5868:5872   */\n      0x00\n        /* \"#utility.yul\":5906:5908   */\n      0x20\n        /* \"#utility.yul\":5895:5904   */\n      dup3\n        /* \"#utility.yul\":5891:5909   */\n      add\n        /* \"#utility.yul\":5883:5909   */\n      swap1\n      pop\n        /* \"#utility.yul\":5955:5964   */\n      dup2\n        /* \"#utility.yul\":5949:5953   */\n      dup2\n        /* \"#utility.yul\":5945:5965   */\n      sub\n        /* \"#utility.yul\":5941:5942   */\n      0x00\n        /* \"#utility.yul\":5930:5939   */\n      dup4\n        /* \"#utility.yul\":5926:5943   */\n      add\n        /* \"#utility.yul\":5919:5966   */\n      mstore\n        /* \"#utility.yul\":5983:6114   */\n      tag_179\n        /* \"#utility.yul\":6109:6113   */\n      dup2\n        /* \"#utility.yul\":5983:6114   */\n      tag_112\n      jump\t// in\n    tag_179:\n        /* \"#utility.yul\":5975:6114   */\n      swap1\n      pop\n        /* \"#utility.yul\":5702:6121   */\n      swap2\n      swap1\n      pop\n      jump\t// out\n        /* \"#utility.yul\":6127:6304   */\n    tag_113:\n        /* \"#utility.yul\":6267:6296   */\n      0x6469646e27742073656e6420656e6f756768206f662066756e64730000000000\n        /* \"#utility.yul\":6263:6264   */\n      0x00\n        /* \"#utility.yul\":6255:6261   */\n      dup3\n        /* \"#utility.yul\":6251:6265   */\n      add\n        /* \"#utility.yul\":6244:6297   */\n      mstore\n        /* \"#utility.yul\":6127:6304   */\n      pop\n      jump\t// out\n        /* \"#utility.yul\":6310:6676   */\n    tag_114:\n        /* \"#utility.yul\":6452:6455   */\n      0x00\n        /* \"#utility.yul\":6473:6540   */\n      tag_182\n        /* \"#utility.yul\":6537:6539   */\n      0x1b\n        /* \"#utility.yul\":6532:6535   */\n      dup4\n        /* \"#utility.yul\":6473:6540   */\n      tag_105\n      jump\t// in\n    tag_182:\n        /* \"#utility.yul\":6466:6540   */\n      swap2\n      pop\n        /* \"#utility.yul\":6549:6642   */\n      tag_183\n        /* \"#utility.yul\":6638:6641   */\n      dup3\n        /* \"#utility.yul\":6549:6642   */\n      tag_113\n      jump\t// in\n    tag_183:\n        /* \"#utility.yul\":6667:6669   */\n      0x20\n        /* \"#utility.yul\":6662:6665   */\n      dup3\n        /* \"#utility.yul\":6658:6670   */\n      add\n        /* \"#utility.yul\":6651:6670   */\n      swap1\n      pop\n        /* \"#utility.yul\":6310:6676   */\n      swap2\n      swap1\n      pop\n      jump\t// out\n        /* \"#utility.yul\":6682:7101   */\n    tag_66:\n        /* \"#utility.yul\":6848:6852   */\n      0x00\n        /* \"#utility.yul\":6886:6888   */\n      0x20\n        /* \"#utility.yul\":6875:6884   */\n      dup3\n        /* \"#utility.yul\":6871:6889   */\n      add\n        /* \"#utility.yul\":6863:6889   */\n      swap1\n      pop\n        /* \"#utility.yul\":6935:6944   */\n      dup2\n        /* \"#utility.yul\":6929:6933   */\n      dup2\n        /* \"#utility.yul\":6925:6945   */\n      sub\n        /* \"#utility.yul\":6921:6922   */\n      0x00\n        /* \"#utility.yul\":6910:6919   */\n      dup4\n        /* \"#utility.yul\":6906:6923   */\n      add\n        /* \"#utility.yul\":6899:6946   */\n      mstore\n        /* \"#utility.yul\":6963:7094   */\n      tag_185\n        /* \"#utility.yul\":7089:7093   */\n      dup2\n        /* \"#utility.yul\":6963:7094   */\n      tag_114\n      jump\t// in\n    tag_185:\n        /* \"#utility.yul\":6955:7094   */\n      swap1\n      pop\n        /* \"#utility.yul\":6682:7101   */\n      swap2\n      swap1\n      pop\n      jump\t// out\n        /* \"#utility.yul\":7107:7287   */\n    tag_115:\n        /* \"#utility.yul\":7155:7232   */\n      0x4e487b7100000000000000000000000000000000000000000000000000000000\n        /* \"#utility.yul\":7152:7153   */\n      0x00\n        /* \"#utility.yul\":7145:7233   */\n      mstore\n        /* \"#utility.yul\":7252:7256   */\n      0x11\n        /* \"#utility.yul\":7249:7250   */\n      0x04\n        /* \"#utility.yul\":7242:7257   */\n      mstore\n        /* \"#utility.yul\":7276:7280   */\n      0x24\n        /* \"#utility.yul\":7273:7274   */\n      0x00\n        /* \"#utility.yul\":7266:7281   */\n      revert\n        /* \"#utility.yul\":7293:7484   */\n    tag_69:\n        /* \"#utility.yul\":7333:7336   */\n      0x00\n        /* \"#utility.yul\":7352:7372   */\n      tag_188\n        /* \"#utility.yul\":7370:7371   */\n      dup3\n        /* \"#utility.yul\":7352:7372   */\n      tag_93\n      jump\t// in\n    tag_188:\n        /* \"#utility.yul\":7347:7372   */\n      swap2\n      pop\n        /* \"#utility.yul\":7386:7406   */\n      tag_189\n        /* \"#utility.yul\":7404:7405   */\n      dup4\n        /* \"#utility.yul\":7386:7406   */\n      tag_93\n      jump\t// in\n    tag_189:\n        /* \"#utility.yul\":7381:7406   */\n      swap3\n      pop\n        /* \"#utility.yul\":7429:7430   */\n      dup3\n        /* \"#utility.yul\":7426:7427   */\n      dup3\n        /* \"#utility.yul\":7422:7431   */\n      add\n        /* \"#utility.yul\":7415:7431   */\n      swap1\n      pop\n        /* \"#utility.yul\":7450:7453   */\n      dup1\n        /* \"#utility.yul\":7447:7448   */\n      dup3\n        /* \"#utility.yul\":7444:7454   */\n      gt\n        /* \"#utility.yul\":7441:7477   */\n      iszero\n      tag_190\n      jumpi\n        /* \"#utility.yul\":7457:7475   */\n      tag_191\n      tag_115\n      jump\t// in\n    tag_191:\n        /* \"#utility.yul\":7441:7477   */\n    tag_190:\n        /* \"#utility.yul\":7293:7484   */\n      swap3\n      swap2\n      pop\n      pop\n      jump\t// out\n        /* \"#utility.yul\":7490:7900   */\n    tag_76:\n        /* \"#utility.yul\":7530:7537   */\n      0x00\n        /* \"#utility.yul\":7553:7573   */\n      tag_193\n        /* \"#utility.yul\":7571:7572   */\n      dup3\n        /* \"#utility.yul\":7553:7573   */\n      tag_93\n      jump\t// in\n    tag_193:\n        /* \"#utility.yul\":7548:7573   */\n      swap2\n      pop\n        /* \"#utility.yul\":7587:7607   */\n      tag_194\n        /* \"#utility.yul\":7605:7606   */\n      dup4\n        /* \"#utility.yul\":7587:7607   */\n      tag_93\n      jump\t// in\n    tag_194:\n        /* \"#utility.yul\":7582:7607   */\n      swap3\n      pop\n        /* \"#utility.yul\":7642:7643   */\n      dup3\n        /* \"#utility.yul\":7639:7640   */\n      dup3\n        /* \"#utility.yul\":7635:7644   */\n      mul\n        /* \"#utility.yul\":7664:7694   */\n      tag_195\n        /* \"#utility.yul\":7682:7693   */\n      dup2\n        /* \"#utility.yul\":7664:7694   */\n      tag_93\n      jump\t// in\n    tag_195:\n        /* \"#utility.yul\":7653:7694   */\n      swap2\n      pop\n        /* \"#utility.yul\":7843:7844   */\n      dup3\n        /* \"#utility.yul\":7834:7841   */\n      dup3\n        /* \"#utility.yul\":7830:7845   */\n      div\n        /* \"#utility.yul\":7827:7828   */\n      dup5\n        /* \"#utility.yul\":7824:7846   */\n      eq\n        /* \"#utility.yul\":7804:7805   */\n      dup4\n        /* \"#utility.yul\":7797:7806   */\n      iszero\n        /* \"#utility.yul\":7777:7860   */\n      or\n        /* \"#utility.yul\":7754:7893   */\n      tag_196\n      jumpi\n        /* \"#utility.yul\":7873:7891   */\n      tag_197\n      tag_115\n      jump\t// in\n    tag_197:\n        /* \"#utility.yul\":7754:7893   */\n    tag_196:\n        /* \"#utility.yul\":7538:7900   */\n      pop\n        /* \"#utility.yul\":7490:7900   */\n      swap3\n      swap2\n      pop\n      pop\n      jump\t// out\n        /* \"#utility.yul\":7906:8086   */\n    tag_116:\n        /* \"#utility.yul\":7954:8031   */\n      0x4e487b7100000000000000000000000000000000000000000000000000000000\n        /* \"#utility.yul\":7951:7952   */\n      0x00\n        /* \"#utility.yul\":7944:8032   */\n      mstore\n        /* \"#utility.yul\":8051:8055   */\n      0x12\n        /* \"#utility.yul\":8048:8049   */\n      0x04\n        /* \"#utility.yul\":8041:8056   */\n      mstore\n        /* \"#utility.yul\":8075:8079   */\n      0x24\n        /* \"#utility.yul\":8072:8073   */\n      0x00\n        /* \"#utility.yul\":8065:8080   */\n      revert\n        /* \"#utility.yul\":8092:8277   */\n    tag_78:\n        /* \"#utility.yul\":8132:8133   */\n      0x00\n        /* \"#utility.yul\":8149:8169   */\n      tag_200\n        /* \"#utility.yul\":8167:8168   */\n      dup3\n        /* \"#utility.yul\":8149:8169   */\n      tag_93\n      jump\t// in\n    tag_200:\n        /* \"#utility.yul\":8144:8169   */\n      swap2\n      pop\n        /* \"#utility.yul\":8183:8203   */\n      tag_201\n        /* \"#utility.yul\":8201:8202   */\n      dup4\n        /* \"#utility.yul\":8183:8203   */\n      tag_93\n      jump\t// in\n    tag_201:\n        /* \"#utility.yul\":8178:8203   */\n      swap3\n      pop\n        /* \"#utility.yul\":8222:8223   */\n      dup3\n        /* \"#utility.yul\":8212:8247   */\n      tag_202\n      jumpi\n        /* \"#utility.yul\":8227:8245   */\n      tag_203\n      tag_116\n      jump\t// in\n    tag_203:\n        /* \"#utility.yul\":8212:8247   */\n    tag_202:\n        /* \"#utility.yul\":8269:8270   */\n      dup3\n        /* \"#utility.yul\":8266:8267   */\n      dup3\n        /* \"#utility.yul\":8262:8271   */\n      div\n        /* \"#utility.yul\":8257:8271   */\n      swap1\n      pop\n        /* \"#utility.yul\":8092:8277   */\n      swap3\n      swap2\n      pop\n      pop\n      jump\t// out\n        /* \"#utility.yul\":8283:8388   */\n    tag_117:\n        /* \"#utility.yul\":8319:8326   */\n      0x00\n        /* \"#utility.yul\":8359:8381   */\n      0xffffffffffffffffffff\n        /* \"#utility.yul\":8352:8357   */\n      dup3\n        /* \"#utility.yul\":8348:8382   */\n      and\n        /* \"#utility.yul\":8337:8382   */\n      swap1\n      pop\n        /* \"#utility.yul\":8283:8388   */\n      swap2\n      swap1\n      pop\n      jump\t// out\n        /* \"#utility.yul\":8394:8514   */\n    tag_118:\n        /* \"#utility.yul\":8466:8489   */\n      tag_206\n        /* \"#utility.yul\":8483:8488   */\n      dup2\n        /* \"#utility.yul\":8466:8489   */\n      tag_117\n      jump\t// in\n    tag_206:\n        /* \"#utility.yul\":8459:8464   */\n      dup2\n        /* \"#utility.yul\":8456:8490   */\n      eq\n        /* \"#utility.yul\":8446:8508   */\n      tag_207\n      jumpi\n        /* \"#utility.yul\":8504:8505   */\n      0x00\n        /* \"#utility.yul\":8501:8502   */\n      dup1\n        /* \"#utility.yul\":8494:8506   */\n      revert\n        /* \"#utility.yul\":8446:8508   */\n    tag_207:\n        /* \"#utility.yul\":8394:8514   */\n      pop\n      jump\t// out\n        /* \"#utility.yul\":8520:8661   */\n    tag_119:\n        /* \"#utility.yul\":8576:8581   */\n      0x00\n        /* \"#utility.yul\":8607:8613   */\n      dup2\n        /* \"#utility.yul\":8601:8614   */\n      mload\n        /* \"#utility.yul\":8592:8614   */\n      swap1\n      pop\n        /* \"#utility.yul\":8623:8655   */\n      tag_209\n        /* \"#utility.yul\":8649:8654   */\n      dup2\n        /* \"#utility.yul\":8623:8655   */\n      tag_118\n      jump\t// in\n    tag_209:\n        /* \"#utility.yul\":8520:8661   */\n      swap3\n      swap2\n      pop\n      pop\n      jump\t// out\n        /* \"#utility.yul\":8667:8743   */\n    tag_120:\n        /* \"#utility.yul\":8703:8710   */\n      0x00\n        /* \"#utility.yul\":8732:8737   */\n      dup2\n        /* \"#utility.yul\":8721:8737   */\n      swap1\n      pop\n        /* \"#utility.yul\":8667:8743   */\n      swap2\n      swap1\n      pop\n      jump\t// out\n        /* \"#utility.yul\":8749:8869   */\n    tag_121:\n        /* \"#utility.yul\":8821:8844   */\n      tag_212\n        /* \"#utility.yul\":8838:8843   */\n      dup2\n        /* \"#utility.yul\":8821:8844   */\n      tag_120\n      jump\t// in\n    tag_212:\n        /* \"#utility.yul\":8814:8819   */\n      dup2\n        /* \"#utility.yul\":8811:8845   */\n      eq\n        /* \"#utility.yul\":8801:8863   */\n      tag_213\n      jumpi\n        /* \"#utility.yul\":8859:8860   */\n      0x00\n        /* \"#utility.yul\":8856:8857   */\n      dup1\n        /* \"#utility.yul\":8849:8861   */\n      revert\n        /* \"#utility.yul\":8801:8863   */\n    tag_213:\n        /* \"#utility.yul\":8749:8869   */\n      pop\n      jump\t// out\n        /* \"#utility.yul\":8875:9016   */\n    tag_122:\n        /* \"#utility.yul\":8931:8936   */\n      0x00\n        /* \"#utility.yul\":8962:8968   */\n      dup2\n        /* \"#utility.yul\":8956:8969   */\n      mload\n        /* \"#utility.yul\":8947:8969   */\n      swap1\n      pop\n        /* \"#utility.yul\":8978:9010   */\n      tag_215\n        /* \"#utility.yul\":9004:9009   */\n      dup2\n        /* \"#utility.yul\":8978:9010   */\n      tag_121\n      jump\t// in\n    tag_215:\n        /* \"#utility.yul\":8875:9016   */\n      swap3\n      swap2\n      pop\n      pop\n      jump\t// out\n        /* \"#utility.yul\":9022:9165   */\n    tag_123:\n        /* \"#utility.yul\":9079:9084   */\n      0x00\n        /* \"#utility.yul\":9110:9116   */\n      dup2\n        /* \"#utility.yul\":9104:9117   */\n      mload\n        /* \"#utility.yul\":9095:9117   */\n      swap1\n      pop\n        /* \"#utility.yul\":9126:9159   */\n      tag_217\n        /* \"#utility.yul\":9153:9158   */\n      dup2\n        /* \"#utility.yul\":9126:9159   */\n      tag_103\n      jump\t// in\n    tag_217:\n        /* \"#utility.yul\":9022:9165   */\n      swap3\n      swap2\n      pop\n      pop\n      jump\t// out\n        /* \"#utility.yul\":9171:10142   */\n    tag_83:\n        /* \"#utility.yul\":9274:9280   */\n      0x00\n        /* \"#utility.yul\":9282:9288   */\n      dup1\n        /* \"#utility.yul\":9290:9296   */\n      0x00\n        /* \"#utility.yul\":9298:9304   */\n      dup1\n        /* \"#utility.yul\":9306:9312   */\n      0x00\n        /* \"#utility.yul\":9355:9358   */\n      0xa0\n        /* \"#utility.yul\":9343:9352   */\n      dup7\n        /* \"#utility.yul\":9334:9341   */\n      dup9\n        /* \"#utility.yul\":9330:9353   */\n      sub\n        /* \"#utility.yul\":9326:9359   */\n      slt\n        /* \"#utility.yul\":9323:9443   */\n      iszero\n      tag_219\n      jumpi\n        /* \"#utility.yul\":9362:9441   */\n      tag_220\n      tag_96\n      jump\t// in\n    tag_220:\n        /* \"#utility.yul\":9323:9443   */\n    tag_219:\n        /* \"#utility.yul\":9482:9483   */\n      0x00\n        /* \"#utility.yul\":9507:9570   */\n      tag_221\n        /* \"#utility.yul\":9562:9569   */\n      dup9\n        /* \"#utility.yul\":9553:9559   */\n      dup3\n        /* \"#utility.yul\":9542:9551   */\n      dup10\n        /* \"#utility.yul\":9538:9560   */\n      add\n        /* \"#utility.yul\":9507:9570   */\n      tag_119\n      jump\t// in\n    tag_221:\n        /* \"#utility.yul\":9497:9570   */\n      swap6\n      pop\n        /* \"#utility.yul\":9453:9580   */\n      pop\n        /* \"#utility.yul\":9619:9621   */\n      0x20\n        /* \"#utility.yul\":9645:9708   */\n      tag_222\n        /* \"#utility.yul\":9700:9707   */\n      dup9\n        /* \"#utility.yul\":9691:9697   */\n      dup3\n        /* \"#utility.yul\":9680:9689   */\n      dup10\n        /* \"#utility.yul\":9676:9698   */\n      add\n        /* \"#utility.yul\":9645:9708   */\n      tag_122\n      jump\t// in\n    tag_222:\n        /* \"#utility.yul\":9635:9708   */\n      swap5\n      pop\n        /* \"#utility.yul\":9590:9718   */\n      pop\n        /* \"#utility.yul\":9757:9759   */\n      0x40\n        /* \"#utility.yul\":9783:9847   */\n      tag_223\n        /* \"#utility.yul\":9839:9846   */\n      dup9\n        /* \"#utility.yul\":9830:9836   */\n      dup3\n        /* \"#utility.yul\":9819:9828   */\n      dup10\n        /* \"#utility.yul\":9815:9837   */\n      add\n        /* \"#utility.yul\":9783:9847   */\n      tag_123\n      jump\t// in\n    tag_223:\n        /* \"#utility.yul\":9773:9847   */\n      swap4\n      pop\n        /* \"#utility.yul\":9728:9857   */\n      pop\n        /* \"#utility.yul\":9896:9898   */\n      0x60\n        /* \"#utility.yul\":9922:9986   */\n      tag_224\n        /* \"#utility.yul\":9978:9985   */\n      dup9\n        /* \"#utility.yul\":9969:9975   */\n      dup3\n        /* \"#utility.yul\":9958:9967   */\n      dup10\n        /* \"#utility.yul\":9954:9976   */\n      add\n        /* \"#utility.yul\":9922:9986   */\n      tag_123\n      jump\t// in\n    tag_224:\n        /* \"#utility.yul\":9912:9986   */\n      swap3\n      pop\n        /* \"#utility.yul\":9867:9996   */\n      pop\n        /* \"#utility.yul\":10035:10038   */\n      0x80\n        /* \"#utility.yul\":10062:10125   */\n      tag_225\n        /* \"#utility.yul\":10117:10124   */\n      dup9\n        /* \"#utility.yul\":10108:10114   */\n      dup3\n        /* \"#utility.yul\":10097:10106   */\n      dup10\n        /* \"#utility.yul\":10093:10115   */\n      add\n        /* \"#utility.yul\":10062:10125   */\n      tag_119\n      jump\t// in\n    tag_225:\n        /* \"#utility.yul\":10052:10125   */\n      swap2\n      pop\n        /* \"#utility.yul\":10006:10135   */\n      pop\n        /* \"#utility.yul\":9171:10142   */\n      swap3\n      swap6\n      pop\n      swap3\n      swap6\n      swap1\n      swap4\n      pop\n      jump\t// out\n        /* \"#utility.yul\":10148:10704   */\n    tag_85:\n        /* \"#utility.yul\":10187:10194   */\n      0x00\n        /* \"#utility.yul\":10210:10229   */\n      tag_227\n        /* \"#utility.yul\":10227:10228   */\n      dup3\n        /* \"#utility.yul\":10210:10229   */\n      tag_120\n      jump\t// in\n    tag_227:\n        /* \"#utility.yul\":10205:10229   */\n      swap2\n      pop\n        /* \"#utility.yul\":10243:10262   */\n      tag_228\n        /* \"#utility.yul\":10260:10261   */\n      dup4\n        /* \"#utility.yul\":10243:10262   */\n      tag_120\n      jump\t// in\n    tag_228:\n        /* \"#utility.yul\":10238:10262   */\n      swap3\n      pop\n        /* \"#utility.yul\":10297:10298   */\n      dup3\n        /* \"#utility.yul\":10294:10295   */\n      dup3\n        /* \"#utility.yul\":10290:10299   */\n      mul\n        /* \"#utility.yul\":10319:10348   */\n      tag_229\n        /* \"#utility.yul\":10336:10347   */\n      dup2\n        /* \"#utility.yul\":10319:10348   */\n      tag_120\n      jump\t// in\n    tag_229:\n        /* \"#utility.yul\":10308:10348   */\n      swap2\n      pop\n        /* \"#utility.yul\":10406:10472   */\n      0x8000000000000000000000000000000000000000000000000000000000000000\n        /* \"#utility.yul\":10403:10404   */\n      dup5\n        /* \"#utility.yul\":10400:10473   */\n      eq\n        /* \"#utility.yul\":10396:10397   */\n      0x00\n        /* \"#utility.yul\":10393:10394   */\n      dup5\n        /* \"#utility.yul\":10389:10398   */\n      slt\n        /* \"#utility.yul\":10385:10474   */\n      and\n        /* \"#utility.yul\":10382:10497   */\n      iszero\n      tag_230\n      jumpi\n        /* \"#utility.yul\":10477:10495   */\n      tag_231\n      tag_115\n      jump\t// in\n    tag_231:\n        /* \"#utility.yul\":10382:10497   */\n    tag_230:\n        /* \"#utility.yul\":10647:10648   */\n      dup3\n        /* \"#utility.yul\":10638:10645   */\n      dup3\n        /* \"#utility.yul\":10633:10649   */\n      sdiv\n        /* \"#utility.yul\":10630:10631   */\n      dup5\n        /* \"#utility.yul\":10627:10650   */\n      eq\n        /* \"#utility.yul\":10607:10608   */\n      dup4\n        /* \"#utility.yul\":10600:10609   */\n      iszero\n        /* \"#utility.yul\":10580:10664   */\n      or\n        /* \"#utility.yul\":10557:10697   */\n      tag_232\n      jumpi\n        /* \"#utility.yul\":10677:10695   */\n      tag_233\n      tag_115\n      jump\t// in\n    tag_233:\n        /* \"#utility.yul\":10557:10697   */\n    tag_232:\n        /* \"#utility.yul\":10195:10704   */\n      pop\n        /* \"#utility.yul\":10148:10704   */\n      swap3\n      swap2\n      pop\n      pop\n      jump\t// out\n\n    auxdata: 0xa2646970667358221220c59922747d14b73c1a1d6fc216ab711fb4573d356ee3a2a553d89a088f838d9964736f6c63430008180033\n}\n",
				"bytecode": {
					"linkReferences": {},
					"object": "6080604052674563918244f4000060015534801561001b575f80fd5b50335f806101000a81548173ffffffffffffffffffffffffffffffffffffffff021916908373ffffffffffffffffffffffffffffffffffffffff160217905550610c35806100685f395ff3fe608060405260043610610054575f3560e01c8063388a4891146100585780633c7e7d28146100825780633ccfd60b146100be5780638da5cb5b146100d4578063b60d4288146100fe578063cd313ad914610108575b5f80fd5b348015610063575f80fd5b5061006c610144565b604051610079919061068c565b60405180910390f35b34801561008d575f80fd5b506100a860048036038101906100a39190610703565b61014a565b6040516100b5919061068c565b60405180910390f35b3480156100c9575f80fd5b506100d261015f565b005b3480156100df575f80fd5b506100e8610395565b6040516100f5919061073d565b60405180910390f35b6101066103b8565b005b348015610113575f80fd5b5061012e60048036038101906101299190610780565b6104ba565b60405161013b919061073d565b60405180910390f35b60015481565b6003602052805f5260405f205f915090505481565b5f8054906101000a900473ffffffffffffffffffffffffffffffffffffffff1673ffffffffffffffffffffffffffffffffffffffff163373ffffffffffffffffffffffffffffffffffffffff16146101ec576040517f08c379a00000000000000000000000000000000000000000000000000000000081526004016101e390610805565b60405180910390fd5b5f5b600280549050811015610392575f600282815481106102105761020f610823565b5b905f5260205f20015f9054906101000a900473ffffffffffffffffffffffffffffffffffffffff1690505f60035f8373ffffffffffffffffffffffffffffffffffffffff1673ffffffffffffffffffffffffffffffffffffffff1681526020019081526020015f20819055505f67ffffffffffffffff81111561029657610295610850565b5b6040519080825280602002602001820160405280156102c45781602001602082028036833780820191505090505b50600290805190602001906102da9291906105d2565b505f3373ffffffffffffffffffffffffffffffffffffffff1647604051610300906108aa565b5f6040518083038185875af1925050503d805f811461033a576040519150601f19603f3d011682016040523d82523d5f602084013e61033f565b606091505b5050905080610383576040517f08c379a000000000000000000000000000000000000000000000000000000000815260040161037a90610908565b60405180910390fd5b505080806001019150506101ee565b50565b5f8054906101000a900473ffffffffffffffffffffffffffffffffffffffff1681565b6001546103c4346104f5565b1015610405576040517f08c379a00000000000000000000000000000000000000000000000000000000081526004016103fc90610970565b60405180910390fd5b600233908060018154018082558091505060019003905f5260205f20015f9091909190916101000a81548173ffffffffffffffffffffffffffffffffffffffff021916908373ffffffffffffffffffffffffffffffffffffffff1602179055503460035f3373ffffffffffffffffffffffffffffffffffffffff1673ffffffffffffffffffffffffffffffffffffffff1681526020019081526020015f205f8282546104b191906109bb565b92505081905550565b600281815481106104c9575f80fd5b905f5260205f20015f915054906101000a900473ffffffffffffffffffffffffffffffffffffffff1681565b5f806104ff61052d565b90505f670de0b6b3a7640000848361051791906109ee565b6105219190610a5c565b90508092505050919050565b5f8073694aa1769357215de4fac081bf1f309adc32530690505f8173ffffffffffffffffffffffffffffffffffffffff1663feaf968c6040518163ffffffff1660e01b815260040160a060405180830381865afa158015610590573d5f803e3d5ffd5b505050506040513d601f19601f820116820180604052508101906105b49190610b12565b5050509150506402540be400816105cb9190610b89565b9250505090565b828054828255905f5260205f20908101928215610648579160200282015b82811115610647578251825f6101000a81548173ffffffffffffffffffffffffffffffffffffffff021916908373ffffffffffffffffffffffffffffffffffffffff160217905550916020019190600101906105f0565b5b5090506106559190610659565b5090565b5b80821115610670575f815f90555060010161065a565b5090565b5f819050919050565b61068681610674565b82525050565b5f60208201905061069f5f83018461067d565b92915050565b5f80fd5b5f73ffffffffffffffffffffffffffffffffffffffff82169050919050565b5f6106d2826106a9565b9050919050565b6106e2816106c8565b81146106ec575f80fd5b50565b5f813590506106fd816106d9565b92915050565b5f60208284031215610718576107176106a5565b5b5f610725848285016106ef565b91505092915050565b610737816106c8565b82525050565b5f6020820190506107505f83018461072e565b92915050565b61075f81610674565b8114610769575f80fd5b50565b5f8135905061077a81610756565b92915050565b5f60208284031215610795576107946106a5565b5b5f6107a28482850161076c565b91505092915050565b5f82825260208201905092915050565b7f4e6f7420746865206f776e6572206f66207468697320636f6e747261637400005f82015250565b5f6107ef601e836107ab565b91506107fa826107bb565b602082019050919050565b5f6020820190508181035f83015261081c816107e3565b9050919050565b7f4e487b71000000000000000000000000000000000000000000000000000000005f52603260045260245ffd5b7f4e487b71000000000000000000000000000000000000000000000000000000005f52604160045260245ffd5b5f81905092915050565b50565b5f6108955f8361087d565b91506108a082610887565b5f82019050919050565b5f6108b48261088a565b9150819050919050565b7f43616c6c206661696c65640000000000000000000000000000000000000000005f82015250565b5f6108f2600b836107ab565b91506108fd826108be565b602082019050919050565b5f6020820190508181035f83015261091f816108e6565b9050919050565b7f6469646e27742073656e6420656e6f756768206f662066756e647300000000005f82015250565b5f61095a601b836107ab565b915061096582610926565b602082019050919050565b5f6020820190508181035f8301526109878161094e565b9050919050565b7f4e487b71000000000000000000000000000000000000000000000000000000005f52601160045260245ffd5b5f6109c582610674565b91506109d083610674565b92508282019050808211156109e8576109e761098e565b5b92915050565b5f6109f882610674565b9150610a0383610674565b9250828202610a1181610674565b91508282048414831517610a2857610a2761098e565b5b5092915050565b7f4e487b71000000000000000000000000000000000000000000000000000000005f52601260045260245ffd5b5f610a6682610674565b9150610a7183610674565b925082610a8157610a80610a2f565b5b828204905092915050565b5f69ffffffffffffffffffff82169050919050565b610aaa81610a8c565b8114610ab4575f80fd5b50565b5f81519050610ac581610aa1565b92915050565b5f819050919050565b610add81610acb565b8114610ae7575f80fd5b50565b5f81519050610af881610ad4565b92915050565b5f81519050610b0c81610756565b92915050565b5f805f805f60a08688031215610b2b57610b2a6106a5565b5b5f610b3888828901610ab7565b9550506020610b4988828901610aea565b9450506040610b5a88828901610afe565b9350506060610b6b88828901610afe565b9250506080610b7c88828901610ab7565b9150509295509295909350565b5f610b9382610acb565b9150610b9e83610acb565b9250828202610bac81610acb565b91507f800000000000000000000000000000000000000000000000000000000000000084145f84121615610be357610be261098e565b5b8282058414831517610bf857610bf761098e565b5b509291505056fea2646970667358221220c59922747d14b73c1a1d6fc216ab711fb4573d356ee3a2a553d89a088f838d9964736f6c63430008180033",
					"opcodes": "PUSH1 0x80 PUSH1 0x40 MSTORE PUSH8 0x4563918244F40000 PUSH1 0x1 SSTORE CALLVALUE DUP1 ISZERO PUSH2 0x1B JUMPI PUSH0 DUP1 REVERT JUMPDEST POP CALLER PUSH0 DUP1 PUSH2 0x100 EXP DUP2 SLOAD DUP2 PUSH20 0xFFFFFFFFFFFFFFFFFFFFFFFFFFFFFFFFFFFFFFFF MUL NOT AND SWAP1 DUP4 PUSH20 0xFFFFFFFFFFFFFFFFFFFFFFFFFFFFFFFFFFFFFFFF AND MUL OR SWAP1 SSTORE POP PUSH2 0xC35 DUP1 PUSH2 0x68 PUSH0 CODECOPY PUSH0 RETURN INVALID PUSH1 0x80 PUSH1 0x40 MSTORE PUSH1 0x4 CALLDATASIZE LT PUSH2 0x54 JUMPI PUSH0 CALLDATALOAD PUSH1 0xE0 SHR DUP1 PUSH4 0x388A4891 EQ PUSH2 0x58 JUMPI DUP1 PUSH4 0x3C7E7D28 EQ PUSH2 0x82 JUMPI DUP1 PUSH4 0x3CCFD60B EQ PUSH2 0xBE JUMPI DUP1 PUSH4 0x8DA5CB5B EQ PUSH2 0xD4 JUMPI DUP1 PUSH4 0xB60D4288 EQ PUSH2 0xFE JUMPI DUP1 PUSH4 0xCD313AD9 EQ PUSH2 0x108 JUMPI JUMPDEST PUSH0 DUP1 REVERT JUMPDEST CALLVALUE DUP1 ISZERO PUSH2 0x63 JUMPI PUSH0 DUP1 REVERT JUMPDEST POP PUSH2 0x6C PUSH2 0x144 JUMP JUMPDEST PUSH1 0x40 MLOAD PUSH2 0x79 SWAP2 SWAP1 PUSH2 0x68C JUMP JUMPDEST PUSH1 0x40 MLOAD DUP1 SWAP2 SUB SWAP1 RETURN JUMPDEST CALLVALUE DUP1 ISZERO PUSH2 0x8D JUMPI PUSH0 DUP1 REVERT JUMPDEST POP PUSH2 0xA8 PUSH1 0x4 DUP1 CALLDATASIZE SUB DUP2 ADD SWAP1 PUSH2 0xA3 SWAP2 SWAP1 PUSH2 0x703 JUMP JUMPDEST PUSH2 0x14A JUMP JUMPDEST PUSH1 0x40 MLOAD PUSH2 0xB5 SWAP2 SWAP1 PUSH2 0x68C JUMP JUMPDEST PUSH1 0x40 MLOAD DUP1 SWAP2 SUB SWAP1 RETURN JUMPDEST CALLVALUE DUP1 ISZERO PUSH2 0xC9 JUMPI PUSH0 DUP1 REVERT JUMPDEST POP PUSH2 0xD2 PUSH2 0x15F JUMP JUMPDEST STOP JUMPDEST CALLVALUE DUP1 ISZERO PUSH2 0xDF JUMPI PUSH0 DUP1 REVERT JUMPDEST POP PUSH2 0xE8 PUSH2 0x395 JUMP JUMPDEST PUSH1 0x40 MLOAD PUSH2 0xF5 SWAP2 SWAP1 PUSH2 0x73D JUMP JUMPDEST PUSH1 0x40 MLOAD DUP1 SWAP2 SUB SWAP1 RETURN JUMPDEST PUSH2 0x106 PUSH2 0x3B8 JUMP JUMPDEST STOP JUMPDEST CALLVALUE DUP1 ISZERO PUSH2 0x113 JUMPI PUSH0 DUP1 REVERT JUMPDEST POP PUSH2 0x12E PUSH1 0x4 DUP1 CALLDATASIZE SUB DUP2 ADD SWAP1 PUSH2 0x129 SWAP2 SWAP1 PUSH2 0x780 JUMP JUMPDEST PUSH2 0x4BA JUMP JUMPDEST PUSH1 0x40 MLOAD PUSH2 0x13B SWAP2 SWAP1 PUSH2 0x73D JUMP JUMPDEST PUSH1 0x40 MLOAD DUP1 SWAP2 SUB SWAP1 RETURN JUMPDEST PUSH1 0x1 SLOAD DUP2 JUMP JUMPDEST PUSH1 0x3 PUSH1 0x20 MSTORE DUP1 PUSH0 MSTORE PUSH1 0x40 PUSH0 KECCAK256 PUSH0 SWAP2 POP SWAP1 POP SLOAD DUP2 JUMP JUMPDEST PUSH0 DUP1 SLOAD SWAP1 PUSH2 0x100 EXP SWAP1 DIV PUSH20 0xFFFFFFFFFFFFFFFFFFFFFFFFFFFFFFFFFFFFFFFF AND PUSH20 0xFFFFFFFFFFFFFFFFFFFFFFFFFFFFFFFFFFFFFFFF AND CALLER PUSH20 0xFFFFFFFFFFFFFFFFFFFFFFFFFFFFFFFFFFFFFFFF AND EQ PUSH2 0x1EC JUMPI PUSH1 0x40 MLOAD PUSH32 0x8C379A000000000000000000000000000000000000000000000000000000000 DUP2 MSTORE PUSH1 0x4 ADD PUSH2 0x1E3 SWAP1 PUSH2 0x805 JUMP JUMPDEST PUSH1 0x40 MLOAD DUP1 SWAP2 SUB SWAP1 REVERT JUMPDEST PUSH0 JUMPDEST PUSH1 0x2 DUP1 SLOAD SWAP1 POP DUP2 LT ISZERO PUSH2 0x392 JUMPI PUSH0 PUSH1 0x2 DUP3 DUP2 SLOAD DUP2 LT PUSH2 0x210 JUMPI PUSH2 0x20F PUSH2 0x823 JUMP JUMPDEST JUMPDEST SWAP1 PUSH0 MSTORE PUSH1 0x20 PUSH0 KECCAK256 ADD PUSH0 SWAP1 SLOAD SWAP1 PUSH2 0x100 EXP SWAP1 DIV PUSH20 0xFFFFFFFFFFFFFFFFFFFFFFFFFFFFFFFFFFFFFFFF AND SWAP1 POP PUSH0 PUSH1 0x3 PUSH0 DUP4 PUSH20 0xFFFFFFFFFFFFFFFFFFFFFFFFFFFFFFFFFFFFFFFF AND PUSH20 0xFFFFFFFFFFFFFFFFFFFFFFFFFFFFFFFFFFFFFFFF AND DUP2 MSTORE PUSH1 0x20 ADD SWAP1 DUP2 MSTORE PUSH1 0x20 ADD PUSH0 KECCAK256 DUP2 SWAP1 SSTORE POP PUSH0 PUSH8 0xFFFFFFFFFFFFFFFF DUP2 GT ISZERO PUSH2 0x296 JUMPI PUSH2 0x295 PUSH2 0x850 JUMP JUMPDEST JUMPDEST PUSH1 0x40 MLOAD SWAP1 DUP1 DUP3 MSTORE DUP1 PUSH1 0x20 MUL PUSH1 0x20 ADD DUP3 ADD PUSH1 0x40 MSTORE DUP1 ISZERO PUSH2 0x2C4 JUMPI DUP2 PUSH1 0x20 ADD PUSH1 0x20 DUP3 MUL DUP1 CALLDATASIZE DUP4 CALLDATACOPY DUP1 DUP3 ADD SWAP2 POP POP SWAP1 POP JUMPDEST POP PUSH1 0x2 SWAP1 DUP1 MLOAD SWAP1 PUSH1 0x20 ADD SWAP1 PUSH2 0x2DA SWAP3 SWAP2 SWAP1 PUSH2 0x5D2 JUMP JUMPDEST POP PUSH0 CALLER PUSH20 0xFFFFFFFFFFFFFFFFFFFFFFFFFFFFFFFFFFFFFFFF AND SELFBALANCE PUSH1 0x40 MLOAD PUSH2 0x300 SWAP1 PUSH2 0x8AA JUMP JUMPDEST PUSH0 PUSH1 0x40 MLOAD DUP1 DUP4 SUB DUP2 DUP6 DUP8 GAS CALL SWAP3 POP POP POP RETURNDATASIZE DUP1 PUSH0 DUP2 EQ PUSH2 0x33A JUMPI PUSH1 0x40 MLOAD SWAP2 POP PUSH1 0x1F NOT PUSH1 0x3F RETURNDATASIZE ADD AND DUP3 ADD PUSH1 0x40 MSTORE RETURNDATASIZE DUP3 MSTORE RETURNDATASIZE PUSH0 PUSH1 0x20 DUP5 ADD RETURNDATACOPY PUSH2 0x33F JUMP JUMPDEST PUSH1 0x60 SWAP2 POP JUMPDEST POP POP SWAP1 POP DUP1 PUSH2 0x383 JUMPI PUSH1 0x40 MLOAD PUSH32 0x8C379A000000000000000000000000000000000000000000000000000000000 DUP2 MSTORE PUSH1 0x4 ADD PUSH2 0x37A SWAP1 PUSH2 0x908 JUMP JUMPDEST PUSH1 0x40 MLOAD DUP1 SWAP2 SUB SWAP1 REVERT JUMPDEST POP POP DUP1 DUP1 PUSH1 0x1 ADD SWAP2 POP POP PUSH2 0x1EE JUMP JUMPDEST POP JUMP JUMPDEST PUSH0 DUP1 SLOAD SWAP1 PUSH2 0x100 EXP SWAP1 DIV PUSH20 0xFFFFFFFFFFFFFFFFFFFFFFFFFFFFFFFFFFFFFFFF AND DUP2 JUMP JUMPDEST PUSH1 0x1 SLOAD PUSH2 0x3C4 CALLVALUE PUSH2 0x4F5 JUMP JUMPDEST LT ISZERO PUSH2 0x405 JUMPI PUSH1 0x40 MLOAD PUSH32 0x8C379A000000000000000000000000000000000000000000000000000000000 DUP2 MSTORE PUSH1 0x4 ADD PUSH2 0x3FC SWAP1 PUSH2 0x970 JUMP JUMPDEST PUSH1 0x40 MLOAD DUP1 SWAP2 SUB SWAP1 REVERT JUMPDEST PUSH1 0x2 CALLER SWAP1 DUP1 PUSH1 0x1 DUP2 SLOAD ADD DUP1 DUP3 SSTORE DUP1 SWAP2 POP POP PUSH1 0x1 SWAP1 SUB SWAP1 PUSH0 MSTORE PUSH1 0x20 PUSH0 KECCAK256 ADD PUSH0 SWAP1 SWAP2 SWAP1 SWAP2 SWAP1 SWAP2 PUSH2 0x100 EXP DUP2 SLOAD DUP2 PUSH20 0xFFFFFFFFFFFFFFFFFFFFFFFFFFFFFFFFFFFFFFFF MUL NOT AND SWAP1 DUP4 PUSH20 0xFFFFFFFFFFFFFFFFFFFFFFFFFFFFFFFFFFFFFFFF AND MUL OR SWAP1 SSTORE POP CALLVALUE PUSH1 0x3 PUSH0 CALLER PUSH20 0xFFFFFFFFFFFFFFFFFFFFFFFFFFFFFFFFFFFFFFFF AND PUSH20 0xFFFFFFFFFFFFFFFFFFFFFFFFFFFFFFFFFFFFFFFF AND DUP2 MSTORE PUSH1 0x20 ADD SWAP1 DUP2 MSTORE PUSH1 0x20 ADD PUSH0 KECCAK256 PUSH0 DUP3 DUP3 SLOAD PUSH2 0x4B1 SWAP2 SWAP1 PUSH2 0x9BB JUMP JUMPDEST SWAP3 POP POP DUP2 SWAP1 SSTORE POP JUMP JUMPDEST PUSH1 0x2 DUP2 DUP2 SLOAD DUP2 LT PUSH2 0x4C9 JUMPI PUSH0 DUP1 REVERT JUMPDEST SWAP1 PUSH0 MSTORE PUSH1 0x20 PUSH0 KECCAK256 ADD PUSH0 SWAP2 POP SLOAD SWAP1 PUSH2 0x100 EXP SWAP1 DIV PUSH20 0xFFFFFFFFFFFFFFFFFFFFFFFFFFFFFFFFFFFFFFFF AND DUP2 JUMP JUMPDEST PUSH0 DUP1 PUSH2 0x4FF PUSH2 0x52D JUMP JUMPDEST SWAP1 POP PUSH0 PUSH8 0xDE0B6B3A7640000 DUP5 DUP4 PUSH2 0x517 SWAP2 SWAP1 PUSH2 0x9EE JUMP JUMPDEST PUSH2 0x521 SWAP2 SWAP1 PUSH2 0xA5C JUMP JUMPDEST SWAP1 POP DUP1 SWAP3 POP POP POP SWAP2 SWAP1 POP JUMP JUMPDEST PUSH0 DUP1 PUSH20 0x694AA1769357215DE4FAC081BF1F309ADC325306 SWAP1 POP PUSH0 DUP2 PUSH20 0xFFFFFFFFFFFFFFFFFFFFFFFFFFFFFFFFFFFFFFFF AND PUSH4 0xFEAF968C PUSH1 0x40 MLOAD DUP2 PUSH4 0xFFFFFFFF AND PUSH1 0xE0 SHL DUP2 MSTORE PUSH1 0x4 ADD PUSH1 0xA0 PUSH1 0x40 MLOAD DUP1 DUP4 SUB DUP2 DUP7 GAS STATICCALL ISZERO DUP1 ISZERO PUSH2 0x590 JUMPI RETURNDATASIZE PUSH0 DUP1 RETURNDATACOPY RETURNDATASIZE PUSH0 REVERT JUMPDEST POP POP POP POP PUSH1 0x40 MLOAD RETURNDATASIZE PUSH1 0x1F NOT PUSH1 0x1F DUP3 ADD AND DUP3 ADD DUP1 PUSH1 0x40 MSTORE POP DUP2 ADD SWAP1 PUSH2 0x5B4 SWAP2 SWAP1 PUSH2 0xB12 JUMP JUMPDEST POP POP POP SWAP2 POP POP PUSH5 0x2540BE400 DUP2 PUSH2 0x5CB SWAP2 SWAP1 PUSH2 0xB89 JUMP JUMPDEST SWAP3 POP POP POP SWAP1 JUMP JUMPDEST DUP3 DUP1 SLOAD DUP3 DUP3 SSTORE SWAP1 PUSH0 MSTORE PUSH1 0x20 PUSH0 KECCAK256 SWAP1 DUP2 ADD SWAP3 DUP3 ISZERO PUSH2 0x648 JUMPI SWAP2 PUSH1 0x20 MUL DUP3 ADD JUMPDEST DUP3 DUP2 GT ISZERO PUSH2 0x647 JUMPI DUP3 MLOAD DUP3 PUSH0 PUSH2 0x100 EXP DUP2 SLOAD DUP2 PUSH20 0xFFFFFFFFFFFFFFFFFFFFFFFFFFFFFFFFFFFFFFFF MUL NOT AND SWAP1 DUP4 PUSH20 0xFFFFFFFFFFFFFFFFFFFFFFFFFFFFFFFFFFFFFFFF AND MUL OR SWAP1 SSTORE POP SWAP2 PUSH1 0x20 ADD SWAP2 SWAP1 PUSH1 0x1 ADD SWAP1 PUSH2 0x5F0 JUMP JUMPDEST JUMPDEST POP SWAP1 POP PUSH2 0x655 SWAP2 SWAP1 PUSH2 0x659 JUMP JUMPDEST POP SWAP1 JUMP JUMPDEST JUMPDEST DUP1 DUP3 GT ISZERO PUSH2 0x670 JUMPI PUSH0 DUP2 PUSH0 SWAP1 SSTORE POP PUSH1 0x1 ADD PUSH2 0x65A JUMP JUMPDEST POP SWAP1 JUMP JUMPDEST PUSH0 DUP2 SWAP1 POP SWAP2 SWAP1 POP JUMP JUMPDEST PUSH2 0x686 DUP2 PUSH2 0x674 JUMP JUMPDEST DUP3 MSTORE POP POP JUMP JUMPDEST PUSH0 PUSH1 0x20 DUP3 ADD SWAP1 POP PUSH2 0x69F PUSH0 DUP4 ADD DUP5 PUSH2 0x67D JUMP JUMPDEST SWAP3 SWAP2 POP POP JUMP JUMPDEST PUSH0 DUP1 REVERT JUMPDEST PUSH0 PUSH20 0xFFFFFFFFFFFFFFFFFFFFFFFFFFFFFFFFFFFFFFFF DUP3 AND SWAP1 POP SWAP2 SWAP1 POP JUMP JUMPDEST PUSH0 PUSH2 0x6D2 DUP3 PUSH2 0x6A9 JUMP JUMPDEST SWAP1 POP SWAP2 SWAP1 POP JUMP JUMPDEST PUSH2 0x6E2 DUP2 PUSH2 0x6C8 JUMP JUMPDEST DUP2 EQ PUSH2 0x6EC JUMPI PUSH0 DUP1 REVERT JUMPDEST POP JUMP JUMPDEST PUSH0 DUP2 CALLDATALOAD SWAP1 POP PUSH2 0x6FD DUP2 PUSH2 0x6D9 JUMP JUMPDEST SWAP3 SWAP2 POP POP JUMP JUMPDEST PUSH0 PUSH1 0x20 DUP3 DUP5 SUB SLT ISZERO PUSH2 0x718 JUMPI PUSH2 0x717 PUSH2 0x6A5 JUMP JUMPDEST JUMPDEST PUSH0 PUSH2 0x725 DUP5 DUP3 DUP6 ADD PUSH2 0x6EF JUMP JUMPDEST SWAP2 POP POP SWAP3 SWAP2 POP POP JUMP JUMPDEST PUSH2 0x737 DUP2 PUSH2 0x6C8 JUMP JUMPDEST DUP3 MSTORE POP POP JUMP JUMPDEST PUSH0 PUSH1 0x20 DUP3 ADD SWAP1 POP PUSH2 0x750 PUSH0 DUP4 ADD DUP5 PUSH2 0x72E JUMP JUMPDEST SWAP3 SWAP2 POP POP JUMP JUMPDEST PUSH2 0x75F DUP2 PUSH2 0x674 JUMP JUMPDEST DUP2 EQ PUSH2 0x769 JUMPI PUSH0 DUP1 REVERT JUMPDEST POP JUMP JUMPDEST PUSH0 DUP2 CALLDATALOAD SWAP1 POP PUSH2 0x77A DUP2 PUSH2 0x756 JUMP JUMPDEST SWAP3 SWAP2 POP POP JUMP JUMPDEST PUSH0 PUSH1 0x20 DUP3 DUP5 SUB SLT ISZERO PUSH2 0x795 JUMPI PUSH2 0x794 PUSH2 0x6A5 JUMP JUMPDEST JUMPDEST PUSH0 PUSH2 0x7A2 DUP5 DUP3 DUP6 ADD PUSH2 0x76C JUMP JUMPDEST SWAP2 POP POP SWAP3 SWAP2 POP POP JUMP JUMPDEST PUSH0 DUP3 DUP3 MSTORE PUSH1 0x20 DUP3 ADD SWAP1 POP SWAP3 SWAP2 POP POP JUMP JUMPDEST PUSH32 0x4E6F7420746865206F776E6572206F66207468697320636F6E74726163740000 PUSH0 DUP3 ADD MSTORE POP JUMP JUMPDEST PUSH0 PUSH2 0x7EF PUSH1 0x1E DUP4 PUSH2 0x7AB JUMP JUMPDEST SWAP2 POP PUSH2 0x7FA DUP3 PUSH2 0x7BB JUMP JUMPDEST PUSH1 0x20 DUP3 ADD SWAP1 POP SWAP2 SWAP1 POP JUMP JUMPDEST PUSH0 PUSH1 0x20 DUP3 ADD SWAP1 POP DUP2 DUP2 SUB PUSH0 DUP4 ADD MSTORE PUSH2 0x81C DUP2 PUSH2 0x7E3 JUMP JUMPDEST SWAP1 POP SWAP2 SWAP1 POP JUMP JUMPDEST PUSH32 0x4E487B7100000000000000000000000000000000000000000000000000000000 PUSH0 MSTORE PUSH1 0x32 PUSH1 0x4 MSTORE PUSH1 0x24 PUSH0 REVERT JUMPDEST PUSH32 0x4E487B7100000000000000000000000000000000000000000000000000000000 PUSH0 MSTORE PUSH1 0x41 PUSH1 0x4 MSTORE PUSH1 0x24 PUSH0 REVERT JUMPDEST PUSH0 DUP2 SWAP1 POP SWAP3 SWAP2 POP POP JUMP JUMPDEST POP JUMP JUMPDEST PUSH0 PUSH2 0x895 PUSH0 DUP4 PUSH2 0x87D JUMP JUMPDEST SWAP2 POP PUSH2 0x8A0 DUP3 PUSH2 0x887 JUMP JUMPDEST PUSH0 DUP3 ADD SWAP1 POP SWAP2 SWAP1 POP JUMP JUMPDEST PUSH0 PUSH2 0x8B4 DUP3 PUSH2 0x88A JUMP JUMPDEST SWAP2 POP DUP2 SWAP1 POP SWAP2 SWAP1 POP JUMP JUMPDEST PUSH32 0x43616C6C206661696C6564000000000000000000000000000000000000000000 PUSH0 DUP3 ADD MSTORE POP JUMP JUMPDEST PUSH0 PUSH2 0x8F2 PUSH1 0xB DUP4 PUSH2 0x7AB JUMP JUMPDEST SWAP2 POP PUSH2 0x8FD DUP3 PUSH2 0x8BE JUMP JUMPDEST PUSH1 0x20 DUP3 ADD SWAP1 POP SWAP2 SWAP1 POP JUMP JUMPDEST PUSH0 PUSH1 0x20 DUP3 ADD SWAP1 POP DUP2 DUP2 SUB PUSH0 DUP4 ADD MSTORE PUSH2 0x91F DUP2 PUSH2 0x8E6 JUMP JUMPDEST SWAP1 POP SWAP2 SWAP1 POP JUMP JUMPDEST PUSH32 0x6469646E27742073656E6420656E6F756768206F662066756E64730000000000 PUSH0 DUP3 ADD MSTORE POP JUMP JUMPDEST PUSH0 PUSH2 0x95A PUSH1 0x1B DUP4 PUSH2 0x7AB JUMP JUMPDEST SWAP2 POP PUSH2 0x965 DUP3 PUSH2 0x926 JUMP JUMPDEST PUSH1 0x20 DUP3 ADD SWAP1 POP SWAP2 SWAP1 POP JUMP JUMPDEST PUSH0 PUSH1 0x20 DUP3 ADD SWAP1 POP DUP2 DUP2 SUB PUSH0 DUP4 ADD MSTORE PUSH2 0x987 DUP2 PUSH2 0x94E JUMP JUMPDEST SWAP1 POP SWAP2 SWAP1 POP JUMP JUMPDEST PUSH32 0x4E487B7100000000000000000000000000000000000000000000000000000000 PUSH0 MSTORE PUSH1 0x11 PUSH1 0x4 MSTORE PUSH1 0x24 PUSH0 REVERT JUMPDEST PUSH0 PUSH2 0x9C5 DUP3 PUSH2 0x674 JUMP JUMPDEST SWAP2 POP PUSH2 0x9D0 DUP4 PUSH2 0x674 JUMP JUMPDEST SWAP3 POP DUP3 DUP3 ADD SWAP1 POP DUP1 DUP3 GT ISZERO PUSH2 0x9E8 JUMPI PUSH2 0x9E7 PUSH2 0x98E JUMP JUMPDEST JUMPDEST SWAP3 SWAP2 POP POP JUMP JUMPDEST PUSH0 PUSH2 0x9F8 DUP3 PUSH2 0x674 JUMP JUMPDEST SWAP2 POP PUSH2 0xA03 DUP4 PUSH2 0x674 JUMP JUMPDEST SWAP3 POP DUP3 DUP3 MUL PUSH2 0xA11 DUP2 PUSH2 0x674 JUMP JUMPDEST SWAP2 POP DUP3 DUP3 DIV DUP5 EQ DUP4 ISZERO OR PUSH2 0xA28 JUMPI PUSH2 0xA27 PUSH2 0x98E JUMP JUMPDEST JUMPDEST POP SWAP3 SWAP2 POP POP JUMP JUMPDEST PUSH32 0x4E487B7100000000000000000000000000000000000000000000000000000000 PUSH0 MSTORE PUSH1 0x12 PUSH1 0x4 MSTORE PUSH1 0x24 PUSH0 REVERT JUMPDEST PUSH0 PUSH2 0xA66 DUP3 PUSH2 0x674 JUMP JUMPDEST SWAP2 POP PUSH2 0xA71 DUP4 PUSH2 0x674 JUMP JUMPDEST SWAP3 POP DUP3 PUSH2 0xA81 JUMPI PUSH2 0xA80 PUSH2 0xA2F JUMP JUMPDEST JUMPDEST DUP3 DUP3 DIV SWAP1 POP SWAP3 SWAP2 POP POP JUMP JUMPDEST PUSH0 PUSH10 0xFFFFFFFFFFFFFFFFFFFF DUP3 AND SWAP1 POP SWAP2 SWAP1 POP JUMP JUMPDEST PUSH2 0xAAA DUP2 PUSH2 0xA8C JUMP JUMPDEST DUP2 EQ PUSH2 0xAB4 JUMPI PUSH0 DUP1 REVERT JUMPDEST POP JUMP JUMPDEST PUSH0 DUP2 MLOAD SWAP1 POP PUSH2 0xAC5 DUP2 PUSH2 0xAA1 JUMP JUMPDEST SWAP3 SWAP2 POP POP JUMP JUMPDEST PUSH0 DUP2 SWAP1 POP SWAP2 SWAP1 POP JUMP JUMPDEST PUSH2 0xADD DUP2 PUSH2 0xACB JUMP JUMPDEST DUP2 EQ PUSH2 0xAE7 JUMPI PUSH0 DUP1 REVERT JUMPDEST POP JUMP JUMPDEST PUSH0 DUP2 MLOAD SWAP1 POP PUSH2 0xAF8 DUP2 PUSH2 0xAD4 JUMP JUMPDEST SWAP3 SWAP2 POP POP JUMP JUMPDEST PUSH0 DUP2 MLOAD SWAP1 POP PUSH2 0xB0C DUP2 PUSH2 0x756 JUMP JUMPDEST SWAP3 SWAP2 POP POP JUMP JUMPDEST PUSH0 DUP1 PUSH0 DUP1 PUSH0 PUSH1 0xA0 DUP7 DUP9 SUB SLT ISZERO PUSH2 0xB2B JUMPI PUSH2 0xB2A PUSH2 0x6A5 JUMP JUMPDEST JUMPDEST PUSH0 PUSH2 0xB38 DUP9 DUP3 DUP10 ADD PUSH2 0xAB7 JUMP JUMPDEST SWAP6 POP POP PUSH1 0x20 PUSH2 0xB49 DUP9 DUP3 DUP10 ADD PUSH2 0xAEA JUMP JUMPDEST SWAP5 POP POP PUSH1 0x40 PUSH2 0xB5A DUP9 DUP3 DUP10 ADD PUSH2 0xAFE JUMP JUMPDEST SWAP4 POP POP PUSH1 0x60 PUSH2 0xB6B DUP9 DUP3 DUP10 ADD PUSH2 0xAFE JUMP JUMPDEST SWAP3 POP POP PUSH1 0x80 PUSH2 0xB7C DUP9 DUP3 DUP10 ADD PUSH2 0xAB7 JUMP JUMPDEST SWAP2 POP POP SWAP3 SWAP6 POP SWAP3 SWAP6 SWAP1 SWAP4 POP JUMP JUMPDEST PUSH0 PUSH2 0xB93 DUP3 PUSH2 0xACB JUMP JUMPDEST SWAP2 POP PUSH2 0xB9E DUP4 PUSH2 0xACB JUMP JUMPDEST SWAP3 POP DUP3 DUP3 MUL PUSH2 0xBAC DUP2 PUSH2 0xACB JUMP JUMPDEST SWAP2 POP PUSH32 0x8000000000000000000000000000000000000000000000000000000000000000 DUP5 EQ PUSH0 DUP5 SLT AND ISZERO PUSH2 0xBE3 JUMPI PUSH2 0xBE2 PUSH2 0x98E JUMP JUMPDEST JUMPDEST DUP3 DUP3 SDIV DUP5 EQ DUP4 ISZERO OR PUSH2 0xBF8 JUMPI PUSH2 0xBF7 PUSH2 0x98E JUMP JUMPDEST JUMPDEST POP SWAP3 SWAP2 POP POP JUMP INVALID LOG2 PUSH5 0x6970667358 0x22 SLT KECCAK256 0xC5 SWAP10 0x22 PUSH21 0x7D14B73C1A1D6FC216AB711FB4573D356EE3A2A553 0xD8 SWAP11 ADDMOD DUP16 DUP4 DUP14 SWAP10 PUSH5 0x736F6C6343 STOP ADDMOD XOR STOP CALLER "
				},
				"gasEstimates": {
					"creation": {
						"codeDepositCost": "625000",
						"executionCost": "47026",
						"totalCost": "672026"
					},
					"external": {
						"addressToAmount(address)": "2802",
						"fund()": "infinite",
						"listOfFunds(uint256)": "5032",
						"minimalAmmoundUsd()": "2403",
						"owner()": "2549",
						"withdraw()": "infinite"
					}
				},
				"methodIdentifiers": {
					"addressToAmount(address)": "3c7e7d28",
					"fund()": "b60d4288",
					"listOfFunds(uint256)": "cd313ad9",
					"minimalAmmoundUsd()": "388a4891",
					"owner()": "8da5cb5b",
					"withdraw()": "3ccfd60b"
				}
			},
			"storageLayout": {
				"storage": [
					{
						"astId": 51,
						"contract": "FundMe.sol:FundMe",
						"label": "owner",
						"offset": 0,
						"slot": "0",
						"type": "t_address"
					},
					{
						"astId": 66,
						"contract": "FundMe.sol:FundMe",
						"label": "minimalAmmoundUsd",
						"offset": 0,
						"slot": "1",
						"type": "t_uint256"
					},
					{
						"astId": 69,
						"contract": "FundMe.sol:FundMe",
						"label": "listOfFunds",
						"offset": 0,
						"slot": "2",
						"type": "t_array(t_address)dyn_storage"
					},
					{
						"astId": 73,
						"contract": "FundMe.sol:FundMe",
						"label": "addressToAmount",
						"offset": 0,
						"slot": "3",
						"type": "t_mapping(t_address,t_uint256)"
					}
				],
				"types": {
					"t_address": {
						"encoding": "inplace",
						"label": "address",
						"numberOfBytes": "20"
					},
					"t_array(t_address)dyn_storage": {
						"base": "t_address",
						"encoding": "dynamic_array",
						"label": "address[]",
						"numberOfBytes": "32"
					},
					"t_mapping(t_address,t_uint256)": {
						"encoding": "mapping",
						"key": "t_address",
						"label": "mapping(address => uint256)",
						"numberOfBytes": "32",
						"value": "t_uint256"
					},
					"t_uint256": {
						"encoding": "inplace",
						"label": "uint256",
						"numberOfBytes": "32"
					}
				}
			},
			"userdoc": {
				"kind": "user",
				"methods": {},
				"version": 1
			}
		}
	}
}